{
  "address": "0x4e95b3D57ef36c20271F31De1c0068e0253da22f",
  "abi": [
    {
      "inputs": [
        {
          "internalType": "address",
          "name": "multiSig_",
          "type": "address"
        }
      ],
      "stateMutability": "nonpayable",
      "type": "constructor"
    },
    {
      "anonymous": false,
      "inputs": [
        {
          "indexed": true,
          "internalType": "address",
          "name": "owner",
          "type": "address"
        },
        {
          "indexed": true,
          "internalType": "address",
          "name": "spender",
          "type": "address"
        },
        {
          "indexed": false,
          "internalType": "uint256",
          "name": "value",
          "type": "uint256"
        }
      ],
      "name": "Approval",
      "type": "event"
    },
    {
      "anonymous": false,
      "inputs": [
        {
          "indexed": false,
          "internalType": "address",
          "name": "pool",
          "type": "address"
        }
      ],
      "name": "Initialized",
      "type": "event"
    },
    {
      "anonymous": false,
      "inputs": [
        {
          "indexed": true,
          "internalType": "address",
          "name": "previousOwner",
          "type": "address"
        },
        {
          "indexed": true,
          "internalType": "address",
          "name": "newOwner",
          "type": "address"
        }
      ],
      "name": "OwnershipTransferred",
      "type": "event"
    },
    {
      "anonymous": false,
      "inputs": [
        {
          "indexed": true,
          "internalType": "address",
          "name": "from",
          "type": "address"
        },
        {
          "indexed": true,
          "internalType": "address",
          "name": "to",
          "type": "address"
        },
        {
          "indexed": false,
          "internalType": "uint256",
          "name": "value",
          "type": "uint256"
        }
      ],
      "name": "Transfer",
      "type": "event"
    },
    {
      "inputs": [
        {
          "internalType": "address",
          "name": "owner",
          "type": "address"
        },
        {
          "internalType": "address",
          "name": "spender",
          "type": "address"
        }
      ],
      "name": "allowance",
      "outputs": [
        {
          "internalType": "uint256",
          "name": "",
          "type": "uint256"
        }
      ],
      "stateMutability": "view",
      "type": "function"
    },
    {
      "inputs": [
        {
          "internalType": "address",
          "name": "spender",
          "type": "address"
        },
        {
          "internalType": "uint256",
          "name": "amount",
          "type": "uint256"
        }
      ],
      "name": "approve",
      "outputs": [
        {
          "internalType": "bool",
          "name": "",
          "type": "bool"
        }
      ],
      "stateMutability": "nonpayable",
      "type": "function"
    },
    {
      "inputs": [
        {
          "internalType": "address",
          "name": "account",
          "type": "address"
        }
      ],
      "name": "balanceOf",
      "outputs": [
        {
          "internalType": "uint256",
          "name": "",
          "type": "uint256"
        }
      ],
      "stateMutability": "view",
      "type": "function"
    },
    {
      "inputs": [],
      "name": "decimals",
      "outputs": [
        {
          "internalType": "uint8",
          "name": "",
          "type": "uint8"
        }
      ],
      "stateMutability": "view",
      "type": "function"
    },
    {
      "inputs": [
        {
          "internalType": "address",
          "name": "spender",
          "type": "address"
        },
        {
          "internalType": "uint256",
          "name": "subtractedValue",
          "type": "uint256"
        }
      ],
      "name": "decreaseAllowance",
      "outputs": [
        {
          "internalType": "bool",
          "name": "",
          "type": "bool"
        }
      ],
      "stateMutability": "nonpayable",
      "type": "function"
    },
    {
      "inputs": [
        {
          "internalType": "address",
          "name": "spender",
          "type": "address"
        },
        {
          "internalType": "uint256",
          "name": "addedValue",
          "type": "uint256"
        }
      ],
      "name": "increaseAllowance",
      "outputs": [
        {
          "internalType": "bool",
          "name": "",
          "type": "bool"
        }
      ],
      "stateMutability": "nonpayable",
      "type": "function"
    },
    {
      "inputs": [
        {
          "internalType": "address",
          "name": "preSale_",
          "type": "address"
        },
        {
          "internalType": "address",
          "name": "airdrop_",
          "type": "address"
        },
        {
          "internalType": "address",
          "name": "staking_",
          "type": "address"
        },
        {
          "internalType": "address",
          "name": "uniswapRouter_",
          "type": "address"
        }
      ],
      "name": "init",
      "outputs": [],
      "stateMutability": "nonpayable",
      "type": "function"
    },
    {
      "inputs": [],
      "name": "initialized",
      "outputs": [
        {
          "internalType": "bool",
          "name": "",
          "type": "bool"
        }
      ],
      "stateMutability": "view",
      "type": "function"
    },
    {
      "inputs": [],
      "name": "multiSig",
      "outputs": [
        {
          "internalType": "address",
          "name": "",
          "type": "address"
        }
      ],
      "stateMutability": "view",
      "type": "function"
    },
    {
      "inputs": [],
      "name": "name",
      "outputs": [
        {
          "internalType": "string",
          "name": "",
          "type": "string"
        }
      ],
      "stateMutability": "view",
      "type": "function"
    },
    {
      "inputs": [],
      "name": "owner",
      "outputs": [
        {
          "internalType": "address",
          "name": "",
          "type": "address"
        }
      ],
      "stateMutability": "view",
      "type": "function"
    },
    {
      "inputs": [],
      "name": "pool",
      "outputs": [
        {
          "internalType": "address",
          "name": "",
          "type": "address"
        }
      ],
      "stateMutability": "view",
      "type": "function"
    },
    {
      "inputs": [],
      "name": "renounceOwnership",
      "outputs": [],
      "stateMutability": "nonpayable",
      "type": "function"
    },
    {
      "inputs": [
        {
          "internalType": "address",
          "name": "staking_",
          "type": "address"
        }
      ],
      "name": "renounceStaking",
      "outputs": [],
      "stateMutability": "nonpayable",
      "type": "function"
    },
    {
      "inputs": [],
      "name": "staking",
      "outputs": [
        {
          "internalType": "address",
          "name": "",
          "type": "address"
        }
      ],
      "stateMutability": "view",
      "type": "function"
    },
    {
      "inputs": [],
      "name": "symbol",
      "outputs": [
        {
          "internalType": "string",
          "name": "",
          "type": "string"
        }
      ],
      "stateMutability": "view",
      "type": "function"
    },
    {
      "inputs": [],
      "name": "totalSupply",
      "outputs": [
        {
          "internalType": "uint256",
          "name": "",
          "type": "uint256"
        }
      ],
      "stateMutability": "view",
      "type": "function"
    },
    {
      "inputs": [
        {
          "internalType": "address",
          "name": "to",
          "type": "address"
        },
        {
          "internalType": "uint256",
          "name": "amount",
          "type": "uint256"
        }
      ],
      "name": "transfer",
      "outputs": [
        {
          "internalType": "bool",
          "name": "",
          "type": "bool"
        }
      ],
      "stateMutability": "nonpayable",
      "type": "function"
    },
    {
      "inputs": [
        {
          "internalType": "address",
          "name": "from",
          "type": "address"
        },
        {
          "internalType": "address",
          "name": "to",
          "type": "address"
        },
        {
          "internalType": "uint256",
          "name": "amount",
          "type": "uint256"
        }
      ],
      "name": "transferFrom",
      "outputs": [
        {
          "internalType": "bool",
          "name": "",
          "type": "bool"
        }
      ],
      "stateMutability": "nonpayable",
      "type": "function"
    },
    {
      "inputs": [
        {
          "internalType": "address",
          "name": "newOwner",
          "type": "address"
        }
      ],
      "name": "transferOwnership",
      "outputs": [],
      "stateMutability": "nonpayable",
      "type": "function"
    }
  ],
  "transactionHash": "0x5683848e1aedb5840c6fefce9bc699b0d325322f34f928acb050f8e9b09acf46",
  "args": [
    "0x5C29Ac1d01aE85Bd93D1Cc1C457c0d4aed46C0AF"
  ],
  "numDeployments": 1,
  "solcInputHash": "d01a08e4d2679c33e0d5c878faf2a6c4",
  "bytecode": "0x60a06040526000805460ff60a01b191690553480156200001e57600080fd5b50604051620014cd380380620014cd8339810160408190526200004191620001b3565b6200004c33620000bd565b6040805180820190915260088082526743696c697374696160c01b60209092019182526200007d916006916200010d565b506040805180820190915260038082526210d25360ea1b6020909201918252620000aa916007916200010d565b506001600160a01b031660805262000222565b600080546001600160a01b038381166001600160a01b0319831681178455604051919092169283917f8be0079c531659141344cd1fd0a4f28419497f9722a3daafe3b4186f6b6457e09190a35050565b8280546200011b90620001e5565b90600052602060002090601f0160209004810192826200013f57600085556200018a565b82601f106200015a57805160ff19168380011785556200018a565b828001600101855582156200018a579182015b828111156200018a5782518255916020019190600101906200016d565b50620001989291506200019c565b5090565b5b808211156200019857600081556001016200019d565b600060208284031215620001c657600080fd5b81516001600160a01b0381168114620001de57600080fd5b9392505050565b600181811c90821680620001fa57607f821691505b602082108114156200021c57634e487b7160e01b600052602260045260246000fd5b50919050565b6080516112816200024c600039600081816101ff015281816103990152610d9a01526112816000f3fe608060405234801561001057600080fd5b506004361061012c5760003560e01c806339509351116100ad57806395d89b411161007157806395d89b411461029c578063a457c2d7146102a4578063a9059cbb146102b7578063dd62ed3e146102ca578063f2fde38b146102dd57600080fd5b806339509351146102345780634cf088d91461024757806370a082311461025a578063715018a6146102835780638da5cb5b1461028b57600080fd5b806318160ddd116100f457806318160ddd146101c657806323b872dd146101d8578063313ce567146101eb57806336e0004a146101fa57806338c240f01461022157600080fd5b806306552ff31461013157806306fdde0314610146578063095ea7b314610164578063158ef93e1461018757806316f0115b1461019b575b600080fd5b61014461013f366004610f02565b6102f0565b005b61014e6105e9565b60405161015b9190610f5e565b60405180910390f35b610177610172366004610fb3565b61067b565b604051901515815260200161015b565b60005461017790600160a01b900460ff1681565b6002546101ae906001600160a01b031681565b6040516001600160a01b03909116815260200161015b565b6005545b60405190815260200161015b565b6101776101e6366004610fdf565b610695565b6040516012815260200161015b565b6101ae7f000000000000000000000000000000000000000000000000000000000000000081565b61014461022f366004611020565b6106b9565b610177610242366004610fb3565b610745565b6001546101ae906001600160a01b031681565b6101ca610268366004611020565b6001600160a01b031660009081526003602052604090205490565b610144610767565b6000546001600160a01b03166101ae565b61014e61077b565b6101776102b2366004610fb3565b61078a565b6101776102c5366004610fb3565b610805565b6101ca6102d8366004611044565b610813565b6101446102eb366004611020565b61083e565b6102f86108b7565b600054600160a01b900460ff16156103575760405162461bcd60e51b815260206004820152601860248201527f43494c3a20616c726561647920696e697469616c697a6564000000000000000060448201526064015b60405180910390fd5b60126103798561036883600a611177565b6103749061c350611183565b610911565b6103948461038883600a611177565b61037490614e20611183565b6103d07f00000000000000000000000000000000000000000000000000000000000000006103c383600a611177565b61037490624b39d0611183565b82600160006101000a8154816001600160a01b0302191690836001600160a01b0316021790555060008290506000816001600160a01b031663c45a01556040518163ffffffff1660e01b815260040160206040518083038186803b15801561043757600080fd5b505afa15801561044b573d6000803e3d6000fd5b505050506040513d601f19601f8201168201806040525081019061046f91906111a2565b9050806001600160a01b031663a167129530846001600160a01b0316634aa4a4fc6040518163ffffffff1660e01b815260040160206040518083038186803b1580156104ba57600080fd5b505afa1580156104ce573d6000803e3d6000fd5b505050506040513d601f19601f820116820180604052508101906104f291906111a2565b6040516001600160e01b031960e085901b1681526001600160a01b03928316600482015291166024820152610bb86044820152606401602060405180830381600087803b15801561054257600080fd5b505af1158015610556573d6000803e3d6000fd5b505050506040513d601f19601f8201168201806040525081019061057a91906111a2565b600280546001600160a01b03929092166001600160a01b0319909216821790556000805460ff60a01b1916600160a01b1790556040519081527f908408e307fc569b417f6cbec5d5a06f44a0a505ac0479b47d421a4b2fd6a1e69060200160405180910390a150505050505050565b6060600680546105f8906111bf565b80601f0160208091040260200160405190810160405280929190818152602001828054610624906111bf565b80156106715780601f1061064657610100808354040283529160200191610671565b820191906000526020600020905b81548152906001019060200180831161065457829003601f168201915b5050505050905090565b6000336106898185856109f0565b60019150505b92915050565b6000336106a3858285610b14565b6106ae858585610b8e565b506001949350505050565b6106c16108b7565b6001600160a01b0381166107235760405162461bcd60e51b815260206004820152602360248201527f43494c50726553616c653a20696e76616c6964207374616b696e67206164647260448201526265737360e81b606482015260840161034e565b600180546001600160a01b0319166001600160a01b0392909216919091179055565b6000336106898185856107588383610813565b61076291906111fa565b6109f0565b61076f6108b7565b6107796000610e9d565b565b6060600780546105f8906111bf565b600033816107988286610813565b9050838110156107f85760405162461bcd60e51b815260206004820152602560248201527f45524332303a2064656372656173656420616c6c6f77616e63652062656c6f77604482015264207a65726f60d81b606482015260840161034e565b6106ae82868684036109f0565b600033610689818585610b8e565b6001600160a01b03918216600090815260046020908152604080832093909416825291909152205490565b6108466108b7565b6001600160a01b0381166108ab5760405162461bcd60e51b815260206004820152602660248201527f4f776e61626c653a206e6577206f776e657220697320746865207a65726f206160448201526564647265737360d01b606482015260840161034e565b6108b481610e9d565b50565b6000546001600160a01b031633146107795760405162461bcd60e51b815260206004820181905260248201527f4f776e61626c653a2063616c6c6572206973206e6f7420746865206f776e6572604482015260640161034e565b6001600160a01b0382166109675760405162461bcd60e51b815260206004820152601f60248201527f45524332303a206d696e7420746f20746865207a65726f206164647265737300604482015260640161034e565b806005600082825461097991906111fa565b90915550506001600160a01b038216600090815260036020526040812080548392906109a69084906111fa565b90915550506040518181526001600160a01b038316906000907fddf252ad1be2c89b69c2b068fc378daa952ba7f163c4a11628f55a4df523b3ef9060200160405180910390a35050565b6001600160a01b038316610a525760405162461bcd60e51b8152602060048201526024808201527f45524332303a20617070726f76652066726f6d20746865207a65726f206164646044820152637265737360e01b606482015260840161034e565b6001600160a01b038216610ab35760405162461bcd60e51b815260206004820152602260248201527f45524332303a20617070726f766520746f20746865207a65726f206164647265604482015261737360f01b606482015260840161034e565b6001600160a01b0383811660008181526004602090815260408083209487168084529482529182902085905590518481527f8c5be1e5ebec7d5bd14f71427d1e84f3dd0314c0f7b2291e5b200ac8c7c3b925910160405180910390a3505050565b6000610b208484610813565b90506000198114610b885781811015610b7b5760405162461bcd60e51b815260206004820152601d60248201527f45524332303a20696e73756666696369656e7420616c6c6f77616e6365000000604482015260640161034e565b610b8884848484036109f0565b50505050565b6001600160a01b038316610bf25760405162461bcd60e51b815260206004820152602560248201527f45524332303a207472616e736665722066726f6d20746865207a65726f206164604482015264647265737360d81b606482015260840161034e565b6001600160a01b038216610c545760405162461bcd60e51b815260206004820152602360248201527f45524332303a207472616e7366657220746f20746865207a65726f206164647260448201526265737360e81b606482015260840161034e565b6001600160a01b03831660009081526003602052604090205481811015610ccc5760405162461bcd60e51b815260206004820152602660248201527f45524332303a207472616e7366657220616d6f756e7420657863656564732062604482015265616c616e636560d01b606482015260840161034e565b6001600160a01b0384166000908152600360205260408120838303905554600160a01b900460ff168015610d2457506002546001600160a01b0385811691161480610d2457506002546001600160a01b038481169116145b15610e1d576000610d36606484611212565b905060006007610d4783600a611183565b610d519190611212565b6001546001600160a01b0316600090815260036020526040812080549293508392909190610d809084906111fa565b90915550610d9090508183611234565b6001600160a01b037f00000000000000000000000000000000000000000000000000000000000000001660009081526003602052604081208054909190610dd89084906111fa565b90915550610de890508285611234565b6001600160a01b03861660009081526003602052604081208054909190610e109084906111fa565b90915550610e4b92505050565b6001600160a01b03831660009081526003602052604081208054849290610e459084906111fa565b90915550505b826001600160a01b0316846001600160a01b03167fddf252ad1be2c89b69c2b068fc378daa952ba7f163c4a11628f55a4df523b3ef84604051610e9091815260200190565b60405180910390a3610b88565b600080546001600160a01b038381166001600160a01b0319831681178455604051919092169283917f8be0079c531659141344cd1fd0a4f28419497f9722a3daafe3b4186f6b6457e09190a35050565b6001600160a01b03811681146108b457600080fd5b60008060008060808587031215610f1857600080fd5b8435610f2381610eed565b93506020850135610f3381610eed565b92506040850135610f4381610eed565b91506060850135610f5381610eed565b939692955090935050565b600060208083528351808285015260005b81811015610f8b57858101830151858201604001528201610f6f565b81811115610f9d576000604083870101525b50601f01601f1916929092016040019392505050565b60008060408385031215610fc657600080fd5b8235610fd181610eed565b946020939093013593505050565b600080600060608486031215610ff457600080fd5b8335610fff81610eed565b9250602084013561100f81610eed565b929592945050506040919091013590565b60006020828403121561103257600080fd5b813561103d81610eed565b9392505050565b6000806040838503121561105757600080fd5b823561106281610eed565b9150602083013561107281610eed565b809150509250929050565b634e487b7160e01b600052601160045260246000fd5b600181815b808511156110ce5781600019048211156110b4576110b461107d565b808516156110c157918102915b93841c9390800290611098565b509250929050565b6000826110e55750600161068f565b816110f25750600061068f565b816001811461110857600281146111125761112e565b600191505061068f565b60ff8411156111235761112361107d565b50506001821b61068f565b5060208310610133831016604e8410600b8410161715611151575081810a61068f565b61115b8383611093565b806000190482111561116f5761116f61107d565b029392505050565b600061103d83836110d6565b600081600019048311821515161561119d5761119d61107d565b500290565b6000602082840312156111b457600080fd5b815161103d81610eed565b600181811c908216806111d357607f821691505b602082108114156111f457634e487b7160e01b600052602260045260246000fd5b50919050565b6000821982111561120d5761120d61107d565b500190565b60008261122f57634e487b7160e01b600052601260045260246000fd5b500490565b6000828210156112465761124661107d565b50039056fea2646970667358221220a460e390c3bec63596cb6ffbd64d8d5e36accc17a3582c20797f2b87abd1a62664736f6c63430008090033",
  "devdoc": {
    "kind": "dev",
    "methods": {
      "allowance(address,address)": {
        "details": "Returns the remaining number of tokens that `spender` will be allowed to spend on behalf of `owner` through {transferFrom}. This is zero by default. This value changes when {approve} or {transferFrom} are called."
      },
      "approve(address,uint256)": {
        "details": "Sets `amount` as the allowance of `spender` over the caller's tokens. Returns a boolean value indicating whether the operation succeeded. IMPORTANT: Beware that changing an allowance with this method brings the risk that someone may use both the old and the new allowance by unfortunate transaction ordering. One possible solution to mitigate this race condition is to first reduce the spender's allowance to 0 and set the desired value afterwards: https://github.com/ethereum/EIPs/issues/20#issuecomment-263524729 Emits an {Approval} event."
      },
      "balanceOf(address)": {
        "details": "Returns the amount of tokens owned by `account`."
      },
      "constructor": {
        "params": {
          "multiSig_": "multi sign contract address"
        }
      },
      "decimals()": {
        "details": "Returns the decimals places of the token."
      },
      "init(address,address,address,address)": {
        "details": "init cilistia token supply",
        "params": {
          "airdrop_": "airdrop contract address",
          "preSale_": "preSale contract address",
          "staking_": "staking contract address",
          "uniswapRouter_": "uniswap router address"
        }
      },
      "name()": {
        "details": "Returns the name of the token."
      },
      "owner()": {
        "details": "Returns the address of the current owner."
      },
      "renounceOwnership()": {
        "details": "Leaves the contract without owner. It will not be possible to call `onlyOwner` functions anymore. Can only be called by the current owner. NOTE: Renouncing ownership will leave the contract without an owner, thereby removing any functionality that is only available to the owner."
      },
      "renounceStaking(address)": {
        "details": "renounce price of CIL ($ per CIL)",
        "params": {
          "staking_": "price of the cil token"
        }
      },
      "symbol()": {
        "details": "Returns the symbol of the token."
      },
      "totalSupply()": {
        "details": "Returns the amount of tokens in existence."
      },
      "transfer(address,uint256)": {
        "details": "Moves `amount` tokens from the caller's account to `to`. Returns a boolean value indicating whether the operation succeeded. Emits a {Transfer} event."
      },
      "transferFrom(address,address,uint256)": {
        "details": "Moves `amount` tokens from `from` to `to` using the allowance mechanism. `amount` is then deducted from the caller's allowance. Returns a boolean value indicating whether the operation succeeded. Emits a {Transfer} event."
      },
      "transferOwnership(address)": {
        "details": "Transfers ownership of the contract to a new account (`newOwner`). Can only be called by the current owner."
      }
    },
    "version": 1
  },
  "userdoc": {
    "kind": "user",
    "methods": {},
    "notice": "utility and governance token of the Cilistia protocol. (https://docs.cilistia.com/cil)",
    "version": 1
  },
  "storageLayout": {
    "storage": [
      {
        "astId": 7,
        "contract": "contracts/core/CIL.sol:CIL",
        "label": "_owner",
        "offset": 0,
        "slot": "0",
        "type": "t_address"
      },
      {
        "astId": 2573,
        "contract": "contracts/core/CIL.sol:CIL",
        "label": "initialized",
        "offset": 20,
        "slot": "0",
        "type": "t_bool"
      },
      {
        "astId": 2577,
        "contract": "contracts/core/CIL.sol:CIL",
        "label": "staking",
        "offset": 0,
        "slot": "1",
        "type": "t_address"
      },
      {
        "astId": 2579,
        "contract": "contracts/core/CIL.sol:CIL",
        "label": "pool",
        "offset": 0,
        "slot": "2",
        "type": "t_address"
      },
      {
        "astId": 2583,
        "contract": "contracts/core/CIL.sol:CIL",
        "label": "_balances",
        "offset": 0,
        "slot": "3",
        "type": "t_mapping(t_address,t_uint256)"
      },
      {
        "astId": 2589,
        "contract": "contracts/core/CIL.sol:CIL",
        "label": "_allowances",
        "offset": 0,
        "slot": "4",
        "type": "t_mapping(t_address,t_mapping(t_address,t_uint256))"
      },
      {
        "astId": 2591,
        "contract": "contracts/core/CIL.sol:CIL",
        "label": "_totalSupply",
        "offset": 0,
        "slot": "5",
        "type": "t_uint256"
      },
      {
        "astId": 2593,
        "contract": "contracts/core/CIL.sol:CIL",
        "label": "_name",
        "offset": 0,
        "slot": "6",
        "type": "t_string_storage"
      },
      {
        "astId": 2595,
        "contract": "contracts/core/CIL.sol:CIL",
        "label": "_symbol",
        "offset": 0,
        "slot": "7",
        "type": "t_string_storage"
      }
    ],
    "types": {
      "t_address": {
        "encoding": "inplace",
        "label": "address",
        "numberOfBytes": "20"
      },
      "t_bool": {
        "encoding": "inplace",
        "label": "bool",
        "numberOfBytes": "1"
      },
      "t_mapping(t_address,t_mapping(t_address,t_uint256))": {
        "encoding": "mapping",
        "key": "t_address",
        "label": "mapping(address => mapping(address => uint256))",
        "numberOfBytes": "32",
        "value": "t_mapping(t_address,t_uint256)"
      },
      "t_mapping(t_address,t_uint256)": {
        "encoding": "mapping",
        "key": "t_address",
        "label": "mapping(address => uint256)",
        "numberOfBytes": "32",
        "value": "t_uint256"
      },
      "t_string_storage": {
        "encoding": "bytes",
        "label": "string",
        "numberOfBytes": "32"
      },
      "t_uint256": {
        "encoding": "inplace",
        "label": "uint256",
        "numberOfBytes": "32"
      }
    }
  }
}