{
  "address": "0xF39cf81C5172C78B78a3B84873A56394CFCcfB4e",
  "abi": [
    {
      "inputs": [
        {
          "internalType": "address",
          "name": "multiSig_",
          "type": "address"
        }
      ],
      "stateMutability": "nonpayable",
      "type": "constructor"
    },
    {
      "anonymous": false,
      "inputs": [
        {
          "indexed": true,
          "internalType": "address",
          "name": "owner",
          "type": "address"
        },
        {
          "indexed": true,
          "internalType": "address",
          "name": "spender",
          "type": "address"
        },
        {
          "indexed": false,
          "internalType": "uint256",
          "name": "value",
          "type": "uint256"
        }
      ],
      "name": "Approval",
      "type": "event"
    },
    {
      "anonymous": false,
      "inputs": [
        {
          "indexed": false,
          "internalType": "address",
          "name": "pool",
          "type": "address"
        }
      ],
      "name": "Initialized",
      "type": "event"
    },
    {
      "anonymous": false,
      "inputs": [
        {
          "indexed": true,
          "internalType": "address",
          "name": "previousOwner",
          "type": "address"
        },
        {
          "indexed": true,
          "internalType": "address",
          "name": "newOwner",
          "type": "address"
        }
      ],
      "name": "OwnershipTransferred",
      "type": "event"
    },
    {
      "anonymous": false,
      "inputs": [
        {
          "indexed": true,
          "internalType": "address",
          "name": "from",
          "type": "address"
        },
        {
          "indexed": true,
          "internalType": "address",
          "name": "to",
          "type": "address"
        },
        {
          "indexed": false,
          "internalType": "uint256",
          "name": "value",
          "type": "uint256"
        }
      ],
      "name": "Transfer",
      "type": "event"
    },
    {
      "inputs": [
        {
          "internalType": "address",
          "name": "owner",
          "type": "address"
        },
        {
          "internalType": "address",
          "name": "spender",
          "type": "address"
        }
      ],
      "name": "allowance",
      "outputs": [
        {
          "internalType": "uint256",
          "name": "",
          "type": "uint256"
        }
      ],
      "stateMutability": "view",
      "type": "function"
    },
    {
      "inputs": [
        {
          "internalType": "address",
          "name": "spender",
          "type": "address"
        },
        {
          "internalType": "uint256",
          "name": "amount",
          "type": "uint256"
        }
      ],
      "name": "approve",
      "outputs": [
        {
          "internalType": "bool",
          "name": "",
          "type": "bool"
        }
      ],
      "stateMutability": "nonpayable",
      "type": "function"
    },
    {
      "inputs": [
        {
          "internalType": "address",
          "name": "account",
          "type": "address"
        }
      ],
      "name": "balanceOf",
      "outputs": [
        {
          "internalType": "uint256",
          "name": "",
          "type": "uint256"
        }
      ],
      "stateMutability": "view",
      "type": "function"
    },
    {
      "inputs": [],
      "name": "decimals",
      "outputs": [
        {
          "internalType": "uint8",
          "name": "",
          "type": "uint8"
        }
      ],
      "stateMutability": "view",
      "type": "function"
    },
    {
      "inputs": [
        {
          "internalType": "address",
          "name": "spender",
          "type": "address"
        },
        {
          "internalType": "uint256",
          "name": "subtractedValue",
          "type": "uint256"
        }
      ],
      "name": "decreaseAllowance",
      "outputs": [
        {
          "internalType": "bool",
          "name": "",
          "type": "bool"
        }
      ],
      "stateMutability": "nonpayable",
      "type": "function"
    },
    {
      "inputs": [],
      "name": "getPrice",
      "outputs": [
        {
          "internalType": "uint256",
          "name": "price",
          "type": "uint256"
        }
      ],
      "stateMutability": "view",
      "type": "function"
    },
    {
      "inputs": [
        {
          "internalType": "address",
          "name": "spender",
          "type": "address"
        },
        {
          "internalType": "uint256",
          "name": "addedValue",
          "type": "uint256"
        }
      ],
      "name": "increaseAllowance",
      "outputs": [
        {
          "internalType": "bool",
          "name": "",
          "type": "bool"
        }
      ],
      "stateMutability": "nonpayable",
      "type": "function"
    },
    {
      "inputs": [
        {
          "internalType": "address",
          "name": "preSale_",
          "type": "address"
        },
        {
          "internalType": "address",
          "name": "ogAirdrop_",
          "type": "address"
        },
        {
          "internalType": "address",
          "name": "trueOgAirdrop_",
          "type": "address"
        },
        {
          "internalType": "address",
          "name": "staking_",
          "type": "address"
        },
        {
          "internalType": "address",
          "name": "uniswapRouter_",
          "type": "address"
        },
        {
          "internalType": "address",
          "name": "nonfungiblePositionManager_",
          "type": "address"
        },
        {
          "internalType": "address",
          "name": "liquidityExtension_",
          "type": "address"
        },
        {
          "internalType": "uint160",
          "name": "sqrtPriceX96",
          "type": "uint160"
        }
      ],
      "name": "init",
      "outputs": [],
      "stateMutability": "nonpayable",
      "type": "function"
    },
    {
      "inputs": [],
      "name": "initialized",
      "outputs": [
        {
          "internalType": "bool",
          "name": "",
          "type": "bool"
        }
      ],
      "stateMutability": "view",
      "type": "function"
    },
    {
      "inputs": [],
      "name": "liquidityExtension",
      "outputs": [
        {
          "internalType": "address",
          "name": "",
          "type": "address"
        }
      ],
      "stateMutability": "view",
      "type": "function"
    },
    {
      "inputs": [],
      "name": "multiSig",
      "outputs": [
        {
          "internalType": "address",
          "name": "",
          "type": "address"
        }
      ],
      "stateMutability": "view",
      "type": "function"
    },
    {
      "inputs": [],
      "name": "name",
      "outputs": [
        {
          "internalType": "string",
          "name": "",
          "type": "string"
        }
      ],
      "stateMutability": "view",
      "type": "function"
    },
    {
      "inputs": [],
      "name": "nonfungiblePositionManager",
      "outputs": [
        {
          "internalType": "address",
          "name": "",
          "type": "address"
        }
      ],
      "stateMutability": "view",
      "type": "function"
    },
    {
      "inputs": [],
      "name": "owner",
      "outputs": [
        {
          "internalType": "address",
          "name": "",
          "type": "address"
        }
      ],
      "stateMutability": "view",
      "type": "function"
    },
    {
      "inputs": [],
      "name": "pool",
      "outputs": [
        {
          "internalType": "address",
          "name": "",
          "type": "address"
        }
      ],
      "stateMutability": "view",
      "type": "function"
    },
    {
      "inputs": [],
      "name": "renounceOwnership",
      "outputs": [],
      "stateMutability": "nonpayable",
      "type": "function"
    },
    {
      "inputs": [],
      "name": "staking",
      "outputs": [
        {
          "internalType": "address",
          "name": "",
          "type": "address"
        }
      ],
      "stateMutability": "view",
      "type": "function"
    },
    {
      "inputs": [],
      "name": "symbol",
      "outputs": [
        {
          "internalType": "string",
          "name": "",
          "type": "string"
        }
      ],
      "stateMutability": "view",
      "type": "function"
    },
    {
      "inputs": [],
      "name": "totalSupply",
      "outputs": [
        {
          "internalType": "uint256",
          "name": "",
          "type": "uint256"
        }
      ],
      "stateMutability": "view",
      "type": "function"
    },
    {
      "inputs": [
        {
          "internalType": "address",
          "name": "to",
          "type": "address"
        },
        {
          "internalType": "uint256",
          "name": "amount",
          "type": "uint256"
        }
      ],
      "name": "transfer",
      "outputs": [
        {
          "internalType": "bool",
          "name": "",
          "type": "bool"
        }
      ],
      "stateMutability": "nonpayable",
      "type": "function"
    },
    {
      "inputs": [
        {
          "internalType": "address",
          "name": "from",
          "type": "address"
        },
        {
          "internalType": "address",
          "name": "to",
          "type": "address"
        },
        {
          "internalType": "uint256",
          "name": "amount",
          "type": "uint256"
        }
      ],
      "name": "transferFrom",
      "outputs": [
        {
          "internalType": "bool",
          "name": "",
          "type": "bool"
        }
      ],
      "stateMutability": "nonpayable",
      "type": "function"
    },
    {
      "inputs": [
        {
          "internalType": "address",
          "name": "newOwner",
          "type": "address"
        }
      ],
      "name": "transferOwnership",
      "outputs": [],
      "stateMutability": "nonpayable",
      "type": "function"
    },
    {
      "inputs": [
        {
          "internalType": "address",
          "name": "liquidityExtension_",
          "type": "address"
        }
      ],
      "name": "updateLiquidityExtension",
      "outputs": [],
      "stateMutability": "nonpayable",
      "type": "function"
    },
    {
      "inputs": [
        {
          "internalType": "address",
          "name": "staking_",
          "type": "address"
        }
      ],
      "name": "updateStaking",
      "outputs": [],
      "stateMutability": "nonpayable",
      "type": "function"
    }
  ],
  "transactionHash": "0xf400b9cb0e6d07f0b427cd4f86fdea203b7f62d40a505e906e034135e16a6279",
  "args": [
    "0x5C29Ac1d01aE85Bd93D1Cc1C457c0d4aed46C0AF"
  ],
  "numDeployments": 1,
  "solcInputHash": "cdc4c6df970731b1b62b0e2ffb932926",
  "bytecode": "0x60a06040523480156200001157600080fd5b506040516200172d3803806200172d8339810160408190526200003491620001ca565b6040518060400160405280600881526020016743696c697374696160c01b8152506040518060400160405280600381526020016210d25360ea1b81525081600390805190602001906200008992919062000124565b5080516200009f90600490602084019062000124565b505050620000bc620000b6620000ce60201b60201c565b620000d2565b6001600160a01b031660805262000239565b3390565b600580546001600160a01b038381166001600160a01b0319831681179093556040519116919082907f8be0079c531659141344cd1fd0a4f28419497f9722a3daafe3b4186f6b6457e090600090a35050565b8280546200013290620001fc565b90600052602060002090601f016020900481019282620001565760008555620001a1565b82601f106200017157805160ff1916838001178555620001a1565b82800160010185558215620001a1579182015b82811115620001a157825182559160200191906001019062000184565b50620001af929150620001b3565b5090565b5b80821115620001af5760008155600101620001b4565b600060208284031215620001dd57600080fd5b81516001600160a01b0381168114620001f557600080fd5b9392505050565b600181811c908216806200021157607f821691505b602082108114156200023357634e487b7160e01b600052602260045260246000fd5b50919050565b6080516114ca6200026360003960008181610229015281816106f80152610d8101526114ca6000f3fe608060405234801561001057600080fd5b50600436106101585760003560e01c8063715018a6116100c3578063a9059cbb1161007c578063a9059cbb146102eb578063b44a2722146102fe578063d26f83f014610311578063dba8f64c14610324578063dd62ed3e14610337578063f2fde38b1461034a57600080fd5b8063715018a61461029a5780638da5cb5b146102a457806395d89b41146102b557806398d5fdca146102bd578063a345f38d146102c5578063a457c2d7146102d857600080fd5b806323b872dd1161011557806323b872dd14610202578063313ce5671461021557806336e0004a14610224578063395093511461024b5780634cf088d91461025e57806370a082311461027157600080fd5b806306fdde031461015d578063095ea7b31461017b578063158ef93e1461019e57806316f0115b146101b257806318160ddd146101dd57806320f855f9146101ef575b600080fd5b61016561035d565b604051610172919061111e565b60405180910390f35b61018e610189366004611188565b6103ef565b6040519015158152602001610172565b60055461018e90600160a01b900460ff1681565b6007546101c5906001600160a01b031681565b6040516001600160a01b039091168152602001610172565b6002545b604051908152602001610172565b6009546101c5906001600160a01b031681565b61018e6102103660046111b4565b610407565b60405160128152602001610172565b6101c57f000000000000000000000000000000000000000000000000000000000000000081565b61018e610259366004611188565b61042b565b6006546101c5906001600160a01b031681565b6101e161027f3660046111f5565b6001600160a01b031660009081526020819052604090205490565b6102a261044d565b005b6005546001600160a01b03166101c5565b610165610461565b6101e1610470565b6102a26102d33660046111f5565b61053b565b61018e6102e6366004611188565b6105cc565b61018e6102f9366004611188565b610647565b6008546101c5906001600160a01b031681565b6102a261031f366004611219565b610655565b6102a26103323660046111f5565b6109bf565b6101e16103453660046112c2565b610a56565b6102a26103583660046111f5565b610a81565b60606003805461036c906112fb565b80601f0160208091040260200160405190810160405280929190818152602001828054610398906112fb565b80156103e55780601f106103ba576101008083540402835291602001916103e5565b820191906000526020600020905b8154815290600101906020018083116103c857829003601f168201915b5050505050905090565b6000336103fd818585610afa565b5060019392505050565b600033610415858285610c1e565b610420858585610c98565b506001949350505050565b6000336103fd81858561043e8383610a56565b610448919061134c565b610afa565b610455610dc5565b61045f6000610e1f565b565b60606004805461036c906112fb565b600080600760009054906101000a90046001600160a01b03166001600160a01b0316633850c7bd6040518163ffffffff1660e01b815260040160e06040518083038186803b1580156104c157600080fd5b505afa1580156104d5573d6000803e3d6000fd5b505050506040513d601f19601f820116820180604052508101906104f9919061137b565b505050505050905060c0816001600160a01b0316826001600160a01b0316610521919061141f565b61053390670de0b6b3a764000061141f565b901c91505090565b610543610dc5565b6001600160a01b0381166105aa5760405162461bcd60e51b815260206004820152602360248201527f43494c50726553616c653a20696e76616c6964207374616b696e67206164647260448201526265737360e81b60648201526084015b60405180910390fd5b600680546001600160a01b0319166001600160a01b0392909216919091179055565b600033816105da8286610a56565b90508381101561063a5760405162461bcd60e51b815260206004820152602560248201527f45524332303a2064656372656173656420616c6c6f77616e63652062656c6f77604482015264207a65726f60d81b60648201526084016105a1565b6104208286868403610afa565b6000336103fd818585610c98565b61065d610dc5565b600554600160a01b900460ff16156106b75760405162461bcd60e51b815260206004820152601860248201527f43494c3a20616c726561647920696e697469616c697a6564000000000000000060448201526064016105a1565b6106cb88690a968163f0a57b400000610e71565b6106df8769065a4da25d3016c00000610e71565b6106f38669043c33c1937564800000610e71565b6107287f00000000000000000000000000000000000000000000000000000000000000006a040d9d88421f592e800000610e71565b600680546001600160a01b038088166001600160a01b031992831617909255600880548684169083161790556009805485841692169190911790556040805163c45a015560e01b8152905186926000929084169163c45a015591600480820192602092909190829003018186803b1580156107a257600080fd5b505afa1580156107b6573d6000803e3d6000fd5b505050506040513d601f19601f820116820180604052508101906107da919061143e565b90506000610bb89050816001600160a01b031663a167129530856001600160a01b0316634aa4a4fc6040518163ffffffff1660e01b815260040160206040518083038186803b15801561082c57600080fd5b505afa158015610840573d6000803e3d6000fd5b505050506040513d601f19601f82011682018060405250810190610864919061143e565b6040516001600160e01b031960e085901b1681526001600160a01b0392831660048201529116602482015262ffffff84166044820152606401602060405180830381600087803b1580156108b757600080fd5b505af11580156108cb573d6000803e3d6000fd5b505050506040513d601f19601f820116820180604052508101906108ef919061143e565b600780546001600160a01b0319166001600160a01b0392831690811790915560405163f637731d60e01b815291861660048301529063f637731d90602401600060405180830381600087803b15801561094757600080fd5b505af115801561095b573d6000803e3d6000fd5b50506005805460ff60a01b1916600160a01b17905550506007546040516001600160a01b0390911681527f908408e307fc569b417f6cbec5d5a06f44a0a505ac0479b47d421a4b2fd6a1e69060200160405180910390a15050505050505050505050565b6109c7610dc5565b6001600160a01b038116610a345760405162461bcd60e51b815260206004820152602e60248201527f43494c50726553616c653a20696e76616c6964206c697175696469747945787460448201526d656e73696f6e206164647265737360901b60648201526084016105a1565b600980546001600160a01b0319166001600160a01b0392909216919091179055565b6001600160a01b03918216600090815260016020908152604080832093909416825291909152205490565b610a89610dc5565b6001600160a01b038116610aee5760405162461bcd60e51b815260206004820152602660248201527f4f776e61626c653a206e6577206f776e657220697320746865207a65726f206160448201526564647265737360d01b60648201526084016105a1565b610af781610e1f565b50565b6001600160a01b038316610b5c5760405162461bcd60e51b8152602060048201526024808201527f45524332303a20617070726f76652066726f6d20746865207a65726f206164646044820152637265737360e01b60648201526084016105a1565b6001600160a01b038216610bbd5760405162461bcd60e51b815260206004820152602260248201527f45524332303a20617070726f766520746f20746865207a65726f206164647265604482015261737360f01b60648201526084016105a1565b6001600160a01b0383811660008181526001602090815260408083209487168084529482529182902085905590518481527f8c5be1e5ebec7d5bd14f71427d1e84f3dd0314c0f7b2291e5b200ac8c7c3b925910160405180910390a3505050565b6000610c2a8484610a56565b90506000198114610c925781811015610c855760405162461bcd60e51b815260206004820152601d60248201527f45524332303a20696e73756666696369656e7420616c6c6f77616e636500000060448201526064016105a1565b610c928484848403610afa565b50505050565b6009546001600160a01b0384811691161480610cc157506009546001600160a01b038381169116145b80610cd957506008546001600160a01b038481169116145b80610cf157506008546001600160a01b038381169116145b80610d2357506007546001600160a01b03848116911614801590610d2357506007546001600160a01b03838116911614155b15610d3857610d33838383610f50565b505050565b6000610d4560648361145b565b90506000600a610d5683600761141f565b610d60919061145b565b600654909150610d7b9086906001600160a01b031683610f50565b610daf857f0000000000000000000000000000000000000000000000000000000000000000610daa848661147d565b610f50565b610dbe8585610daa858761147d565b5050505050565b6005546001600160a01b0316331461045f5760405162461bcd60e51b815260206004820181905260248201527f4f776e61626c653a2063616c6c6572206973206e6f7420746865206f776e657260448201526064016105a1565b600580546001600160a01b038381166001600160a01b0319831681179093556040519116919082907f8be0079c531659141344cd1fd0a4f28419497f9722a3daafe3b4186f6b6457e090600090a35050565b6001600160a01b038216610ec75760405162461bcd60e51b815260206004820152601f60248201527f45524332303a206d696e7420746f20746865207a65726f20616464726573730060448201526064016105a1565b8060026000828254610ed9919061134c565b90915550506001600160a01b03821660009081526020819052604081208054839290610f0690849061134c565b90915550506040518181526001600160a01b038316906000907fddf252ad1be2c89b69c2b068fc378daa952ba7f163c4a11628f55a4df523b3ef9060200160405180910390a35050565b6001600160a01b038316610fb45760405162461bcd60e51b815260206004820152602560248201527f45524332303a207472616e736665722066726f6d20746865207a65726f206164604482015264647265737360d81b60648201526084016105a1565b6001600160a01b0382166110165760405162461bcd60e51b815260206004820152602360248201527f45524332303a207472616e7366657220746f20746865207a65726f206164647260448201526265737360e81b60648201526084016105a1565b6001600160a01b0383166000908152602081905260409020548181101561108e5760405162461bcd60e51b815260206004820152602660248201527f45524332303a207472616e7366657220616d6f756e7420657863656564732062604482015265616c616e636560d01b60648201526084016105a1565b6001600160a01b038085166000908152602081905260408082208585039055918516815290812080548492906110c590849061134c565b92505081905550826001600160a01b0316846001600160a01b03167fddf252ad1be2c89b69c2b068fc378daa952ba7f163c4a11628f55a4df523b3ef8460405161111191815260200190565b60405180910390a3610c92565b600060208083528351808285015260005b8181101561114b5785810183015185820160400152820161112f565b8181111561115d576000604083870101525b50601f01601f1916929092016040019392505050565b6001600160a01b0381168114610af757600080fd5b6000806040838503121561119b57600080fd5b82356111a681611173565b946020939093013593505050565b6000806000606084860312156111c957600080fd5b83356111d481611173565b925060208401356111e481611173565b929592945050506040919091013590565b60006020828403121561120757600080fd5b813561121281611173565b9392505050565b600080600080600080600080610100898b03121561123657600080fd5b883561124181611173565b9750602089013561125181611173565b9650604089013561126181611173565b9550606089013561127181611173565b9450608089013561128181611173565b935060a089013561129181611173565b925060c08901356112a181611173565b915060e08901356112b181611173565b809150509295985092959890939650565b600080604083850312156112d557600080fd5b82356112e081611173565b915060208301356112f081611173565b809150509250929050565b600181811c9082168061130f57607f821691505b6020821081141561133057634e487b7160e01b600052602260045260246000fd5b50919050565b634e487b7160e01b600052601160045260246000fd5b6000821982111561135f5761135f611336565b500190565b805161ffff8116811461137657600080fd5b919050565b600080600080600080600060e0888a03121561139657600080fd5b87516113a181611173565b8097505060208801518060020b81146113b957600080fd5b95506113c760408901611364565b94506113d560608901611364565b93506113e360808901611364565b925060a088015160ff811681146113f957600080fd5b60c0890151909250801515811461140f57600080fd5b8091505092959891949750929550565b600081600019048311821515161561143957611439611336565b500290565b60006020828403121561145057600080fd5b815161121281611173565b60008261147857634e487b7160e01b600052601260045260246000fd5b500490565b60008282101561148f5761148f611336565b50039056fea26469706673582212203f5e4a412a30866c34009bf4aedbb4e686cdca77c191481eef293bda9b42442e64736f6c63430008090033",
  "devdoc": {
    "kind": "dev",
    "methods": {
      "allowance(address,address)": {
        "details": "See {IERC20-allowance}."
      },
      "approve(address,uint256)": {
        "details": "See {IERC20-approve}. NOTE: If `amount` is the maximum `uint256`, the allowance is not updated on `transferFrom`. This is semantically equivalent to an infinite approval. Requirements: - `spender` cannot be the zero address."
      },
      "balanceOf(address)": {
        "details": "See {IERC20-balanceOf}."
      },
      "constructor": {
        "params": {
          "multiSig_": "multi sign contract address"
        }
      },
      "decimals()": {
        "details": "Returns the number of decimals used to get its user representation. For example, if `decimals` equals `2`, a balance of `505` tokens should be displayed to a user as `5.05` (`505 / 10 ** 2`). Tokens usually opt for a value of 18, imitating the relationship between Ether and Wei. This is the value {ERC20} uses, unless this function is overridden; NOTE: This information is only used for _display_ purposes: it in no way affects any of the arithmetic of the contract, including {IERC20-balanceOf} and {IERC20-transfer}."
      },
      "decreaseAllowance(address,uint256)": {
        "details": "Atomically decreases the allowance granted to `spender` by the caller. This is an alternative to {approve} that can be used as a mitigation for problems described in {IERC20-approve}. Emits an {Approval} event indicating the updated allowance. Requirements: - `spender` cannot be the zero address. - `spender` must have allowance for the caller of at least `subtractedValue`."
      },
      "getPrice()": {
        "details": "return cil token price base on eth price"
      },
      "increaseAllowance(address,uint256)": {
        "details": "Atomically increases the allowance granted to `spender` by the caller. This is an alternative to {approve} that can be used as a mitigation for problems described in {IERC20-approve}. Emits an {Approval} event indicating the updated allowance. Requirements: - `spender` cannot be the zero address."
      },
      "init(address,address,address,address,address,address,address,uint160)": {
        "details": "init cilistia token supply",
        "params": {
          "liquidityExtension_": "uniswap router address",
          "ogAirdrop_": "airdrop contract address",
          "preSale_": "preSale contract address",
          "sqrtPriceX96": "sqrtPriceX96 to initialize token",
          "staking_": "staking contract address",
          "trueOgAirdrop_": "airdrop contract address",
          "uniswapRouter_": "uniswap router address"
        }
      },
      "name()": {
        "details": "Returns the name of the token."
      },
      "owner()": {
        "details": "Returns the address of the current owner."
      },
      "renounceOwnership()": {
        "details": "Leaves the contract without owner. It will not be possible to call `onlyOwner` functions anymore. Can only be called by the current owner. NOTE: Renouncing ownership will leave the contract without an owner, thereby removing any functionality that is only available to the owner."
      },
      "symbol()": {
        "details": "Returns the symbol of the token, usually a shorter version of the name."
      },
      "totalSupply()": {
        "details": "See {IERC20-totalSupply}."
      },
      "transfer(address,uint256)": {
        "details": "See {IERC20-transfer}. Requirements: - `to` cannot be the zero address. - the caller must have a balance of at least `amount`."
      },
      "transferFrom(address,address,uint256)": {
        "details": "See {IERC20-transferFrom}. Emits an {Approval} event indicating the updated allowance. This is not required by the EIP. See the note at the beginning of {ERC20}. NOTE: Does not update the allowance if the current allowance is the maximum `uint256`. Requirements: - `from` and `to` cannot be the zero address. - `from` must have a balance of at least `amount`. - the caller must have allowance for ``from``'s tokens of at least `amount`."
      },
      "transferOwnership(address)": {
        "details": "Transfers ownership of the contract to a new account (`newOwner`). Can only be called by the current owner."
      },
      "updateLiquidityExtension(address)": {
        "details": "update liquidityExtension contract address",
        "params": {
          "liquidityExtension_": "address of liquidityExtension contract"
        }
      },
      "updateStaking(address)": {
        "details": "update staking contract address",
        "params": {
          "staking_": "address of staking contract"
        }
      }
    },
    "version": 1
  },
  "userdoc": {
    "events": {
      "Initialized(address)": {
        "notice": "fires when initialize token"
      }
    },
    "kind": "user",
    "methods": {
      "initialized()": {
        "notice": "token initialize state"
      },
      "multiSig()": {
        "notice": "community multiSig contract address"
      },
      "nonfungiblePositionManager()": {
        "notice": "fee exceptions"
      },
      "pool()": {
        "notice": "uniswap addresses"
      },
      "staking()": {
        "notice": "staking contract address;"
      }
    },
    "notice": "utility and governance token of the Cilistia protocol. (https://docs.cilistia.com/cil)",
    "version": 1
  },
  "storageLayout": {
    "storage": [
      {
        "astId": 174,
        "contract": "contracts/core/CIL.sol:CIL",
        "label": "_balances",
        "offset": 0,
        "slot": "0",
        "type": "t_mapping(t_address,t_uint256)"
      },
      {
        "astId": 180,
        "contract": "contracts/core/CIL.sol:CIL",
        "label": "_allowances",
        "offset": 0,
        "slot": "1",
        "type": "t_mapping(t_address,t_mapping(t_address,t_uint256))"
      },
      {
        "astId": 182,
        "contract": "contracts/core/CIL.sol:CIL",
        "label": "_totalSupply",
        "offset": 0,
        "slot": "2",
        "type": "t_uint256"
      },
      {
        "astId": 184,
        "contract": "contracts/core/CIL.sol:CIL",
        "label": "_name",
        "offset": 0,
        "slot": "3",
        "type": "t_string_storage"
      },
      {
        "astId": 186,
        "contract": "contracts/core/CIL.sol:CIL",
        "label": "_symbol",
        "offset": 0,
        "slot": "4",
        "type": "t_string_storage"
      },
      {
        "astId": 53,
        "contract": "contracts/core/CIL.sol:CIL",
        "label": "_owner",
        "offset": 0,
        "slot": "5",
        "type": "t_address"
      },
      {
        "astId": 3628,
        "contract": "contracts/core/CIL.sol:CIL",
        "label": "initialized",
        "offset": 20,
        "slot": "5",
        "type": "t_bool"
      },
      {
        "astId": 3634,
        "contract": "contracts/core/CIL.sol:CIL",
        "label": "staking",
        "offset": 0,
        "slot": "6",
        "type": "t_address"
      },
      {
        "astId": 3637,
        "contract": "contracts/core/CIL.sol:CIL",
        "label": "pool",
        "offset": 0,
        "slot": "7",
        "type": "t_address"
      },
      {
        "astId": 3640,
        "contract": "contracts/core/CIL.sol:CIL",
        "label": "nonfungiblePositionManager",
        "offset": 0,
        "slot": "8",
        "type": "t_address"
      },
      {
        "astId": 3642,
        "contract": "contracts/core/CIL.sol:CIL",
        "label": "liquidityExtension",
        "offset": 0,
        "slot": "9",
        "type": "t_address"
      }
    ],
    "types": {
      "t_address": {
        "encoding": "inplace",
        "label": "address",
        "numberOfBytes": "20"
      },
      "t_bool": {
        "encoding": "inplace",
        "label": "bool",
        "numberOfBytes": "1"
      },
      "t_mapping(t_address,t_mapping(t_address,t_uint256))": {
        "encoding": "mapping",
        "key": "t_address",
        "label": "mapping(address => mapping(address => uint256))",
        "numberOfBytes": "32",
        "value": "t_mapping(t_address,t_uint256)"
      },
      "t_mapping(t_address,t_uint256)": {
        "encoding": "mapping",
        "key": "t_address",
        "label": "mapping(address => uint256)",
        "numberOfBytes": "32",
        "value": "t_uint256"
      },
      "t_string_storage": {
        "encoding": "bytes",
        "label": "string",
        "numberOfBytes": "32"
      },
      "t_uint256": {
        "encoding": "inplace",
        "label": "uint256",
        "numberOfBytes": "32"
      }
    }
  }
}