{
  "address": "0x87d8B0b77BB87cFE92CcD1D1B2B0656839d3a093",
  "abi": [
    {
      "inputs": [
        {
          "internalType": "address",
          "name": "multiSig_",
          "type": "address"
        }
      ],
      "stateMutability": "nonpayable",
      "type": "constructor"
    },
    {
      "anonymous": false,
      "inputs": [
        {
          "indexed": true,
          "internalType": "address",
          "name": "owner",
          "type": "address"
        },
        {
          "indexed": true,
          "internalType": "address",
          "name": "spender",
          "type": "address"
        },
        {
          "indexed": false,
          "internalType": "uint256",
          "name": "value",
          "type": "uint256"
        }
      ],
      "name": "Approval",
      "type": "event"
    },
    {
      "anonymous": false,
      "inputs": [
        {
          "indexed": false,
          "internalType": "address",
          "name": "pool",
          "type": "address"
        }
      ],
      "name": "Initialized",
      "type": "event"
    },
    {
      "anonymous": false,
      "inputs": [
        {
          "indexed": true,
          "internalType": "address",
          "name": "previousOwner",
          "type": "address"
        },
        {
          "indexed": true,
          "internalType": "address",
          "name": "newOwner",
          "type": "address"
        }
      ],
      "name": "OwnershipTransferred",
      "type": "event"
    },
    {
      "anonymous": false,
      "inputs": [
        {
          "indexed": true,
          "internalType": "address",
          "name": "from",
          "type": "address"
        },
        {
          "indexed": true,
          "internalType": "address",
          "name": "to",
          "type": "address"
        },
        {
          "indexed": false,
          "internalType": "uint256",
          "name": "value",
          "type": "uint256"
        }
      ],
      "name": "Transfer",
      "type": "event"
    },
    {
      "inputs": [
        {
          "internalType": "address",
          "name": "owner",
          "type": "address"
        },
        {
          "internalType": "address",
          "name": "spender",
          "type": "address"
        }
      ],
      "name": "allowance",
      "outputs": [
        {
          "internalType": "uint256",
          "name": "",
          "type": "uint256"
        }
      ],
      "stateMutability": "view",
      "type": "function"
    },
    {
      "inputs": [
        {
          "internalType": "address",
          "name": "spender",
          "type": "address"
        },
        {
          "internalType": "uint256",
          "name": "amount",
          "type": "uint256"
        }
      ],
      "name": "approve",
      "outputs": [
        {
          "internalType": "bool",
          "name": "",
          "type": "bool"
        }
      ],
      "stateMutability": "nonpayable",
      "type": "function"
    },
    {
      "inputs": [
        {
          "internalType": "address",
          "name": "account",
          "type": "address"
        }
      ],
      "name": "balanceOf",
      "outputs": [
        {
          "internalType": "uint256",
          "name": "",
          "type": "uint256"
        }
      ],
      "stateMutability": "view",
      "type": "function"
    },
    {
      "inputs": [],
      "name": "decimals",
      "outputs": [
        {
          "internalType": "uint8",
          "name": "",
          "type": "uint8"
        }
      ],
      "stateMutability": "view",
      "type": "function"
    },
    {
      "inputs": [
        {
          "internalType": "address",
          "name": "spender",
          "type": "address"
        },
        {
          "internalType": "uint256",
          "name": "subtractedValue",
          "type": "uint256"
        }
      ],
      "name": "decreaseAllowance",
      "outputs": [
        {
          "internalType": "bool",
          "name": "",
          "type": "bool"
        }
      ],
      "stateMutability": "nonpayable",
      "type": "function"
    },
    {
      "inputs": [
        {
          "internalType": "address",
          "name": "spender",
          "type": "address"
        },
        {
          "internalType": "uint256",
          "name": "addedValue",
          "type": "uint256"
        }
      ],
      "name": "increaseAllowance",
      "outputs": [
        {
          "internalType": "bool",
          "name": "",
          "type": "bool"
        }
      ],
      "stateMutability": "nonpayable",
      "type": "function"
    },
    {
      "inputs": [
        {
          "internalType": "address",
          "name": "preSale_",
          "type": "address"
        },
        {
          "internalType": "address",
          "name": "airdrop_",
          "type": "address"
        },
        {
          "internalType": "address",
          "name": "staking_",
          "type": "address"
        },
        {
          "internalType": "address",
          "name": "uniswapRouter_",
          "type": "address"
        },
        {
          "internalType": "address",
          "name": "liquidityExtension_",
          "type": "address"
        }
      ],
      "name": "init",
      "outputs": [],
      "stateMutability": "nonpayable",
      "type": "function"
    },
    {
      "inputs": [],
      "name": "initialized",
      "outputs": [
        {
          "internalType": "bool",
          "name": "",
          "type": "bool"
        }
      ],
      "stateMutability": "view",
      "type": "function"
    },
    {
      "inputs": [],
      "name": "liquidityExtension",
      "outputs": [
        {
          "internalType": "address",
          "name": "",
          "type": "address"
        }
      ],
      "stateMutability": "view",
      "type": "function"
    },
    {
      "inputs": [],
      "name": "multiSig",
      "outputs": [
        {
          "internalType": "address",
          "name": "",
          "type": "address"
        }
      ],
      "stateMutability": "view",
      "type": "function"
    },
    {
      "inputs": [],
      "name": "name",
      "outputs": [
        {
          "internalType": "string",
          "name": "",
          "type": "string"
        }
      ],
      "stateMutability": "view",
      "type": "function"
    },
    {
      "inputs": [],
      "name": "owner",
      "outputs": [
        {
          "internalType": "address",
          "name": "",
          "type": "address"
        }
      ],
      "stateMutability": "view",
      "type": "function"
    },
    {
      "inputs": [],
      "name": "pool",
      "outputs": [
        {
          "internalType": "address",
          "name": "",
          "type": "address"
        }
      ],
      "stateMutability": "view",
      "type": "function"
    },
    {
      "inputs": [],
      "name": "renounceOwnership",
      "outputs": [],
      "stateMutability": "nonpayable",
      "type": "function"
    },
    {
      "inputs": [
        {
          "internalType": "address",
          "name": "staking_",
          "type": "address"
        }
      ],
      "name": "renounceStaking",
      "outputs": [],
      "stateMutability": "nonpayable",
      "type": "function"
    },
    {
      "inputs": [],
      "name": "staking",
      "outputs": [
        {
          "internalType": "address",
          "name": "",
          "type": "address"
        }
      ],
      "stateMutability": "view",
      "type": "function"
    },
    {
      "inputs": [],
      "name": "symbol",
      "outputs": [
        {
          "internalType": "string",
          "name": "",
          "type": "string"
        }
      ],
      "stateMutability": "view",
      "type": "function"
    },
    {
      "inputs": [],
      "name": "totalSupply",
      "outputs": [
        {
          "internalType": "uint256",
          "name": "",
          "type": "uint256"
        }
      ],
      "stateMutability": "view",
      "type": "function"
    },
    {
      "inputs": [
        {
          "internalType": "address",
          "name": "to",
          "type": "address"
        },
        {
          "internalType": "uint256",
          "name": "amount",
          "type": "uint256"
        }
      ],
      "name": "transfer",
      "outputs": [
        {
          "internalType": "bool",
          "name": "",
          "type": "bool"
        }
      ],
      "stateMutability": "nonpayable",
      "type": "function"
    },
    {
      "inputs": [
        {
          "internalType": "address",
          "name": "from",
          "type": "address"
        },
        {
          "internalType": "address",
          "name": "to",
          "type": "address"
        },
        {
          "internalType": "uint256",
          "name": "amount",
          "type": "uint256"
        }
      ],
      "name": "transferFrom",
      "outputs": [
        {
          "internalType": "bool",
          "name": "",
          "type": "bool"
        }
      ],
      "stateMutability": "nonpayable",
      "type": "function"
    },
    {
      "inputs": [
        {
          "internalType": "address",
          "name": "newOwner",
          "type": "address"
        }
      ],
      "name": "transferOwnership",
      "outputs": [],
      "stateMutability": "nonpayable",
      "type": "function"
    }
  ],
  "transactionHash": "0x3b6b37ad9eab8a22ea7cb6c29992e0d66930cd7542aa57cb4ce8476792a2538c",
  "args": [
    "0x5C29Ac1d01aE85Bd93D1Cc1C457c0d4aed46C0AF"
  ],
  "numDeployments": 2,
  "solcInputHash": "abdc32abd1c0b218d419fc4171b6e4b0",
  "bytecode": "0x60a06040526000805460ff60a01b191690553480156200001e57600080fd5b506040516200140a3803806200140a8339810160408190526200004191620001b3565b6200004c33620000bd565b6040805180820190915260088082526743696c697374696160c01b60209092019182526200007d916007916200010d565b506040805180820190915260038082526210d25360ea1b6020909201918252620000aa916008916200010d565b506001600160a01b031660805262000222565b600080546001600160a01b038381166001600160a01b0319831681178455604051919092169283917f8be0079c531659141344cd1fd0a4f28419497f9722a3daafe3b4186f6b6457e09190a35050565b8280546200011b90620001e5565b90600052602060002090601f0160209004810192826200013f57600085556200018a565b82601f106200015a57805160ff19168380011785556200018a565b828001600101855582156200018a579182015b828111156200018a5782518255916020019190600101906200016d565b50620001989291506200019c565b5090565b5b808211156200019857600081556001016200019d565b600060208284031215620001c657600080fd5b81516001600160a01b0381168114620001de57600080fd5b9392505050565b600181811c90821680620001fa57607f821691505b602082108114156200021c57634e487b7160e01b600052602260045260246000fd5b50919050565b6080516111be6200024c6000396000818161021d015281816104700152610c7901526111be6000f3fe608060405234801561001057600080fd5b50600436106101375760003560e01c806338c240f0116100b85780638da5cb5b1161007c5780638da5cb5b146102a957806395d89b41146102ba578063a457c2d7146102c2578063a9059cbb146102d5578063dd62ed3e146102e8578063f2fde38b146102fb57600080fd5b806338c240f01461023f57806339509351146102525780634cf088d91461026557806370a0823114610278578063715018a6146102a157600080fd5b806320f855f9116100ff57806320f855f9146101ce57806323b872dd146101e1578063313ce567146101f4578063359ef75b1461020357806336e0004a1461021857600080fd5b806306fdde031461013c578063095ea7b31461015a578063158ef93e1461017d57806316f0115b1461019157806318160ddd146101bc575b600080fd5b61014461030e565b6040516101519190610f05565b60405180910390f35b61016d610168366004610f6f565b6103a0565b6040519015158152602001610151565b60005461016d90600160a01b900460ff1681565b6002546101a4906001600160a01b031681565b6040516001600160a01b039091168152602001610151565b6006545b604051908152602001610151565b6003546101a4906001600160a01b031681565b61016d6101ef366004610f9b565b6103b8565b60405160128152602001610151565b610216610211366004610fdc565b6103dc565b005b6101a47f000000000000000000000000000000000000000000000000000000000000000081565b61021661024d36600461104d565b6106b7565b61016d610260366004610f6f565b610743565b6001546101a4906001600160a01b031681565b6101c061028636600461104d565b6001600160a01b031660009081526004602052604090205490565b610216610765565b6000546001600160a01b03166101a4565b610144610779565b61016d6102d0366004610f6f565b610788565b61016d6102e3366004610f6f565b610803565b6101c06102f6366004611071565b610811565b61021661030936600461104d565b61083c565b60606007805461031d906110aa565b80601f0160208091040260200160405190810160405280929190818152602001828054610349906110aa565b80156103965780601f1061036b57610100808354040283529160200191610396565b820191906000526020600020905b81548152906001019060200180831161037957829003601f168201915b5050505050905090565b6000336103ae8185856108b5565b5060019392505050565b6000336103c68582856109d9565b6103d1858585610a53565b506001949350505050565b6103e4610d7c565b600054600160a01b900460ff16156104435760405162461bcd60e51b815260206004820152601860248201527f43494c3a20616c726561647920696e697469616c697a6564000000000000000060448201526064015b60405180910390fd5b61045785690a968163f0a57b400000610dd6565b61046b8469043c33c1937564800000610dd6565b6104a07f00000000000000000000000000000000000000000000000000000000000000006a0413f7d5e47c8945400000610dd6565b600180546001600160a01b038086166001600160a01b0319928316179092556003805484841692169190911790556040805163c45a015560e01b8152905184926000929084169163c45a015591600480820192602092909190829003018186803b15801561050d57600080fd5b505afa158015610521573d6000803e3d6000fd5b505050506040513d601f19601f8201168201806040525081019061054591906110e5565b9050806001600160a01b031663c9c6539630846001600160a01b031663ad5c46486040518163ffffffff1660e01b815260040160206040518083038186803b15801561059057600080fd5b505afa1580156105a4573d6000803e3d6000fd5b505050506040513d601f19601f820116820180604052508101906105c891906110e5565b6040516001600160e01b031960e085901b1681526001600160a01b03928316600482015291166024820152604401602060405180830381600087803b15801561061057600080fd5b505af1158015610624573d6000803e3d6000fd5b505050506040513d601f19601f8201168201806040525081019061064891906110e5565b600280546001600160a01b03929092166001600160a01b0319909216821790556000805460ff60a01b1916600160a01b1790556040519081527f908408e307fc569b417f6cbec5d5a06f44a0a505ac0479b47d421a4b2fd6a1e69060200160405180910390a150505050505050565b6106bf610d7c565b6001600160a01b0381166107215760405162461bcd60e51b815260206004820152602360248201527f43494c50726553616c653a20696e76616c6964207374616b696e67206164647260448201526265737360e81b606482015260840161043a565b600180546001600160a01b0319166001600160a01b0392909216919091179055565b6000336103ae8185856107568383610811565b6107609190611118565b6108b5565b61076d610d7c565b6107776000610eb5565b565b60606008805461031d906110aa565b600033816107968286610811565b9050838110156107f65760405162461bcd60e51b815260206004820152602560248201527f45524332303a2064656372656173656420616c6c6f77616e63652062656c6f77604482015264207a65726f60d81b606482015260840161043a565b6103d182868684036108b5565b6000336103ae818585610a53565b6001600160a01b03918216600090815260056020908152604080832093909416825291909152205490565b610844610d7c565b6001600160a01b0381166108a95760405162461bcd60e51b815260206004820152602660248201527f4f776e61626c653a206e6577206f776e657220697320746865207a65726f206160448201526564647265737360d01b606482015260840161043a565b6108b281610eb5565b50565b6001600160a01b0383166109175760405162461bcd60e51b8152602060048201526024808201527f45524332303a20617070726f76652066726f6d20746865207a65726f206164646044820152637265737360e01b606482015260840161043a565b6001600160a01b0382166109785760405162461bcd60e51b815260206004820152602260248201527f45524332303a20617070726f766520746f20746865207a65726f206164647265604482015261737360f01b606482015260840161043a565b6001600160a01b0383811660008181526005602090815260408083209487168084529482529182902085905590518481527f8c5be1e5ebec7d5bd14f71427d1e84f3dd0314c0f7b2291e5b200ac8c7c3b925910160405180910390a3505050565b60006109e58484610811565b90506000198114610a4d5781811015610a405760405162461bcd60e51b815260206004820152601d60248201527f45524332303a20696e73756666696369656e7420616c6c6f77616e6365000000604482015260640161043a565b610a4d84848484036108b5565b50505050565b6001600160a01b038316610ab75760405162461bcd60e51b815260206004820152602560248201527f45524332303a207472616e736665722066726f6d20746865207a65726f206164604482015264647265737360d81b606482015260840161043a565b6001600160a01b038216610b195760405162461bcd60e51b815260206004820152602360248201527f45524332303a207472616e7366657220746f20746865207a65726f206164647260448201526265737360e81b606482015260840161043a565b6001600160a01b03831660009081526004602052604090205481811015610b915760405162461bcd60e51b815260206004820152602660248201527f45524332303a207472616e7366657220616d6f756e7420657863656564732062604482015265616c616e636560d01b606482015260840161043a565b6001600160a01b0384166000908152600460205260408120838303905554600160a01b900460ff168015610bd357506003546001600160a01b03858116911614155b8015610c0357506002546001600160a01b0385811691161480610c0357506002546001600160a01b038481169116145b15610cfc576000610c15606484611130565b90506000600a610c26836007611152565b610c309190611130565b6001546001600160a01b0316600090815260046020526040812080549293508392909190610c5f908490611118565b90915550610c6f90508183611171565b6001600160a01b037f00000000000000000000000000000000000000000000000000000000000000001660009081526004602052604081208054909190610cb7908490611118565b90915550610cc790508285611171565b6001600160a01b03861660009081526004602052604081208054909190610cef908490611118565b90915550610d2a92505050565b6001600160a01b03831660009081526004602052604081208054849290610d24908490611118565b90915550505b826001600160a01b0316846001600160a01b03167fddf252ad1be2c89b69c2b068fc378daa952ba7f163c4a11628f55a4df523b3ef84604051610d6f91815260200190565b60405180910390a3610a4d565b6000546001600160a01b031633146107775760405162461bcd60e51b815260206004820181905260248201527f4f776e61626c653a2063616c6c6572206973206e6f7420746865206f776e6572604482015260640161043a565b6001600160a01b038216610e2c5760405162461bcd60e51b815260206004820152601f60248201527f45524332303a206d696e7420746f20746865207a65726f206164647265737300604482015260640161043a565b8060066000828254610e3e9190611118565b90915550506001600160a01b03821660009081526004602052604081208054839290610e6b908490611118565b90915550506040518181526001600160a01b038316906000907fddf252ad1be2c89b69c2b068fc378daa952ba7f163c4a11628f55a4df523b3ef9060200160405180910390a35050565b600080546001600160a01b038381166001600160a01b0319831681178455604051919092169283917f8be0079c531659141344cd1fd0a4f28419497f9722a3daafe3b4186f6b6457e09190a35050565b600060208083528351808285015260005b81811015610f3257858101830151858201604001528201610f16565b81811115610f44576000604083870101525b50601f01601f1916929092016040019392505050565b6001600160a01b03811681146108b257600080fd5b60008060408385031215610f8257600080fd5b8235610f8d81610f5a565b946020939093013593505050565b600080600060608486031215610fb057600080fd5b8335610fbb81610f5a565b92506020840135610fcb81610f5a565b929592945050506040919091013590565b600080600080600060a08688031215610ff457600080fd5b8535610fff81610f5a565b9450602086013561100f81610f5a565b9350604086013561101f81610f5a565b9250606086013561102f81610f5a565b9150608086013561103f81610f5a565b809150509295509295909350565b60006020828403121561105f57600080fd5b813561106a81610f5a565b9392505050565b6000806040838503121561108457600080fd5b823561108f81610f5a565b9150602083013561109f81610f5a565b809150509250929050565b600181811c908216806110be57607f821691505b602082108114156110df57634e487b7160e01b600052602260045260246000fd5b50919050565b6000602082840312156110f757600080fd5b815161106a81610f5a565b634e487b7160e01b600052601160045260246000fd5b6000821982111561112b5761112b611102565b500190565b60008261114d57634e487b7160e01b600052601260045260246000fd5b500490565b600081600019048311821515161561116c5761116c611102565b500290565b60008282101561118357611183611102565b50039056fea264697066735822122074b32b727268cd16fc628f9505cf167c53e18fa21832379dc3bce47a9c83066b64736f6c63430008090033",
  "devdoc": {
    "kind": "dev",
    "methods": {
      "allowance(address,address)": {
        "details": "Returns the remaining number of tokens that `spender` will be allowed to spend on behalf of `owner` through {transferFrom}. This is zero by default. This value changes when {approve} or {transferFrom} are called."
      },
      "approve(address,uint256)": {
        "details": "Sets `amount` as the allowance of `spender` over the caller's tokens. Returns a boolean value indicating whether the operation succeeded. IMPORTANT: Beware that changing an allowance with this method brings the risk that someone may use both the old and the new allowance by unfortunate transaction ordering. One possible solution to mitigate this race condition is to first reduce the spender's allowance to 0 and set the desired value afterwards: https://github.com/ethereum/EIPs/issues/20#issuecomment-263524729 Emits an {Approval} event."
      },
      "balanceOf(address)": {
        "details": "Returns the amount of tokens owned by `account`."
      },
      "constructor": {
        "params": {
          "multiSig_": "multi sign contract address"
        }
      },
      "decimals()": {
        "details": "Returns the decimals places of the token."
      },
      "init(address,address,address,address,address)": {
        "details": "init cilistia token supply",
        "params": {
          "airdrop_": "airdrop contract address",
          "liquidityExtension_": "uniswap router address",
          "preSale_": "preSale contract address",
          "staking_": "staking contract address",
          "uniswapRouter_": "uniswap router address"
        }
      },
      "name()": {
        "details": "Returns the name of the token."
      },
      "owner()": {
        "details": "Returns the address of the current owner."
      },
      "renounceOwnership()": {
        "details": "Leaves the contract without owner. It will not be possible to call `onlyOwner` functions anymore. Can only be called by the current owner. NOTE: Renouncing ownership will leave the contract without an owner, thereby removing any functionality that is only available to the owner."
      },
      "renounceStaking(address)": {
        "details": "renounce price of CIL ($ per CIL)",
        "params": {
          "staking_": "price of the cil token"
        }
      },
      "symbol()": {
        "details": "Returns the symbol of the token."
      },
      "totalSupply()": {
        "details": "Returns the amount of tokens in existence."
      },
      "transfer(address,uint256)": {
        "details": "Moves `amount` tokens from the caller's account to `to`. Returns a boolean value indicating whether the operation succeeded. Emits a {Transfer} event."
      },
      "transferFrom(address,address,uint256)": {
        "details": "Moves `amount` tokens from `from` to `to` using the allowance mechanism. `amount` is then deducted from the caller's allowance. Returns a boolean value indicating whether the operation succeeded. Emits a {Transfer} event."
      },
      "transferOwnership(address)": {
        "details": "Transfers ownership of the contract to a new account (`newOwner`). Can only be called by the current owner."
      }
    },
    "version": 1
  },
  "userdoc": {
    "events": {
      "Initialized(address)": {
        "notice": "fires when initialize token"
      }
    },
    "kind": "user",
    "methods": {
      "initialized()": {
        "notice": "token initialize state"
      },
      "liquidityExtension()": {
        "notice": "liquidity extension"
      },
      "multiSig()": {
        "notice": "community multiSig contract address"
      },
      "pool()": {
        "notice": "uniswap addresses"
      },
      "staking()": {
        "notice": "staking contract address;"
      }
    },
    "notice": "utility and governance token of the Cilistia protocol. (https://docs.cilistia.com/cil)",
    "version": 1
  },
  "storageLayout": {
    "storage": [
      {
        "astId": 53,
        "contract": "contracts/core/CIL.sol:CIL",
        "label": "_owner",
        "offset": 0,
        "slot": "0",
        "type": "t_address"
      },
      {
        "astId": 3225,
        "contract": "contracts/core/CIL.sol:CIL",
        "label": "initialized",
        "offset": 20,
        "slot": "0",
        "type": "t_bool"
      },
      {
        "astId": 3231,
        "contract": "contracts/core/CIL.sol:CIL",
        "label": "staking",
        "offset": 0,
        "slot": "1",
        "type": "t_address"
      },
      {
        "astId": 3234,
        "contract": "contracts/core/CIL.sol:CIL",
        "label": "pool",
        "offset": 0,
        "slot": "2",
        "type": "t_address"
      },
      {
        "astId": 3237,
        "contract": "contracts/core/CIL.sol:CIL",
        "label": "liquidityExtension",
        "offset": 0,
        "slot": "3",
        "type": "t_address"
      },
      {
        "astId": 3242,
        "contract": "contracts/core/CIL.sol:CIL",
        "label": "_balances",
        "offset": 0,
        "slot": "4",
        "type": "t_mapping(t_address,t_uint256)"
      },
      {
        "astId": 3248,
        "contract": "contracts/core/CIL.sol:CIL",
        "label": "_allowances",
        "offset": 0,
        "slot": "5",
        "type": "t_mapping(t_address,t_mapping(t_address,t_uint256))"
      },
      {
        "astId": 3250,
        "contract": "contracts/core/CIL.sol:CIL",
        "label": "_totalSupply",
        "offset": 0,
        "slot": "6",
        "type": "t_uint256"
      },
      {
        "astId": 3252,
        "contract": "contracts/core/CIL.sol:CIL",
        "label": "_name",
        "offset": 0,
        "slot": "7",
        "type": "t_string_storage"
      },
      {
        "astId": 3254,
        "contract": "contracts/core/CIL.sol:CIL",
        "label": "_symbol",
        "offset": 0,
        "slot": "8",
        "type": "t_string_storage"
      }
    ],
    "types": {
      "t_address": {
        "encoding": "inplace",
        "label": "address",
        "numberOfBytes": "20"
      },
      "t_bool": {
        "encoding": "inplace",
        "label": "bool",
        "numberOfBytes": "1"
      },
      "t_mapping(t_address,t_mapping(t_address,t_uint256))": {
        "encoding": "mapping",
        "key": "t_address",
        "label": "mapping(address => mapping(address => uint256))",
        "numberOfBytes": "32",
        "value": "t_mapping(t_address,t_uint256)"
      },
      "t_mapping(t_address,t_uint256)": {
        "encoding": "mapping",
        "key": "t_address",
        "label": "mapping(address => uint256)",
        "numberOfBytes": "32",
        "value": "t_uint256"
      },
      "t_string_storage": {
        "encoding": "bytes",
        "label": "string",
        "numberOfBytes": "32"
      },
      "t_uint256": {
        "encoding": "inplace",
        "label": "uint256",
        "numberOfBytes": "32"
      }
    }
  }
}