{
  "address": "0x8b24de93ef66BE05823C17B0A40e9BF20488Ce4f",
  "abi": [
    {
      "inputs": [
        {
          "internalType": "address",
          "name": "signer_",
          "type": "address"
        },
        {
          "internalType": "address",
          "name": "CIL_",
          "type": "address"
        }
      ],
      "stateMutability": "nonpayable",
      "type": "constructor"
    },
    {
      "anonymous": false,
      "inputs": [
        {
          "indexed": false,
          "internalType": "address",
          "name": "to",
          "type": "address"
        },
        {
          "indexed": false,
          "internalType": "uint256",
          "name": "amount",
          "type": "uint256"
        }
      ],
      "name": "Claimed",
      "type": "event"
    },
    {
      "anonymous": false,
      "inputs": [
        {
          "indexed": true,
          "internalType": "address",
          "name": "previousOwner",
          "type": "address"
        },
        {
          "indexed": true,
          "internalType": "address",
          "name": "newOwner",
          "type": "address"
        }
      ],
      "name": "OwnershipTransferred",
      "type": "event"
    },
    {
      "anonymous": false,
      "inputs": [
        {
          "indexed": false,
          "internalType": "uint32",
          "name": "openingTime",
          "type": "uint32"
        },
        {
          "indexed": false,
          "internalType": "uint32",
          "name": "closingTime",
          "type": "uint32"
        }
      ],
      "name": "SetPeriod",
      "type": "event"
    },
    {
      "inputs": [],
      "name": "CIL",
      "outputs": [
        {
          "internalType": "address",
          "name": "",
          "type": "address"
        }
      ],
      "stateMutability": "view",
      "type": "function"
    },
    {
      "inputs": [],
      "name": "balance",
      "outputs": [
        {
          "internalType": "uint256",
          "name": "",
          "type": "uint256"
        }
      ],
      "stateMutability": "view",
      "type": "function"
    },
    {
      "inputs": [
        {
          "components": [
            {
              "internalType": "bytes32",
              "name": "r",
              "type": "bytes32"
            },
            {
              "internalType": "bytes32",
              "name": "s",
              "type": "bytes32"
            },
            {
              "internalType": "uint8",
              "name": "v",
              "type": "uint8"
            }
          ],
          "internalType": "struct CILAirdrop.Sig",
          "name": "sig",
          "type": "tuple"
        }
      ],
      "name": "claim",
      "outputs": [
        {
          "internalType": "uint256",
          "name": "result",
          "type": "uint256"
        }
      ],
      "stateMutability": "nonpayable",
      "type": "function"
    },
    {
      "inputs": [],
      "name": "closingTime",
      "outputs": [
        {
          "internalType": "uint32",
          "name": "",
          "type": "uint32"
        }
      ],
      "stateMutability": "view",
      "type": "function"
    },
    {
      "inputs": [],
      "name": "isOpen",
      "outputs": [
        {
          "internalType": "bool",
          "name": "",
          "type": "bool"
        }
      ],
      "stateMutability": "view",
      "type": "function"
    },
    {
      "inputs": [
        {
          "internalType": "address",
          "name": "",
          "type": "address"
        }
      ],
      "name": "lastClaimedTime",
      "outputs": [
        {
          "internalType": "uint256",
          "name": "",
          "type": "uint256"
        }
      ],
      "stateMutability": "view",
      "type": "function"
    },
    {
      "inputs": [],
      "name": "ogNumber",
      "outputs": [
        {
          "internalType": "uint32",
          "name": "",
          "type": "uint32"
        }
      ],
      "stateMutability": "view",
      "type": "function"
    },
    {
      "inputs": [],
      "name": "openingTime",
      "outputs": [
        {
          "internalType": "uint32",
          "name": "",
          "type": "uint32"
        }
      ],
      "stateMutability": "view",
      "type": "function"
    },
    {
      "inputs": [],
      "name": "owner",
      "outputs": [
        {
          "internalType": "address",
          "name": "",
          "type": "address"
        }
      ],
      "stateMutability": "view",
      "type": "function"
    },
    {
      "inputs": [],
      "name": "renounceOwnership",
      "outputs": [],
      "stateMutability": "nonpayable",
      "type": "function"
    },
    {
      "inputs": [
        {
          "internalType": "uint32",
          "name": "openingTime_",
          "type": "uint32"
        },
        {
          "internalType": "uint32",
          "name": "closingTime_",
          "type": "uint32"
        },
        {
          "internalType": "uint32",
          "name": "ogNumber_",
          "type": "uint32"
        }
      ],
      "name": "setPeriod",
      "outputs": [],
      "stateMutability": "nonpayable",
      "type": "function"
    },
    {
      "inputs": [],
      "name": "signer",
      "outputs": [
        {
          "internalType": "address",
          "name": "",
          "type": "address"
        }
      ],
      "stateMutability": "view",
      "type": "function"
    },
    {
      "inputs": [],
      "name": "totalClaimableAmountPerWallet",
      "outputs": [
        {
          "internalType": "uint256",
          "name": "",
          "type": "uint256"
        }
      ],
      "stateMutability": "view",
      "type": "function"
    },
    {
      "inputs": [
        {
          "internalType": "address",
          "name": "newOwner",
          "type": "address"
        }
      ],
      "name": "transferOwnership",
      "outputs": [],
      "stateMutability": "nonpayable",
      "type": "function"
    },
    {
      "inputs": [
        {
          "internalType": "address",
          "name": "recipient_",
          "type": "address"
        }
      ],
      "name": "withdraw",
      "outputs": [],
      "stateMutability": "nonpayable",
      "type": "function"
    }
  ],
  "transactionHash": "0x58b99a302d44fbaf9c40c9a502c3ed59ee67a37ecae0a8700ab45356dee72c91",
  "args": [
    "0x6933E63B7786769E4f21F6015566569DBd450cFC",
    "0xcFe9baa11794d928E2F019152136241d682793f1"
  ],
  "numDeployments": 1,
  "solcInputHash": "26632f16600ea0bbd033383109c6972e",
  "bytecode": "0x60c060405234801561001057600080fd5b50604051610fd3380380610fd383398101604081905261002f91610177565b6100383361010b565b6001600160a01b03821661009e5760405162461bcd60e51b815260206004820152602260248201527f43494c41697264726f703a20696e76616c6964207369676e6572206164647265604482015261737360f01b60648201526084015b60405180910390fd5b6001600160a01b0381166100f45760405162461bcd60e51b815260206004820152601f60248201527f43494c41697264726f703a20696e76616c69642043494c2061646472657373006044820152606401610095565b6001600160a01b0391821660a052166080526101aa565b600080546001600160a01b038381166001600160a01b0319831681178455604051919092169283917f8be0079c531659141344cd1fd0a4f28419497f9722a3daafe3b4186f6b6457e09190a35050565b80516001600160a01b038116811461017257600080fd5b919050565b6000806040838503121561018a57600080fd5b6101938361015b565b91506101a16020840161015b565b90509250929050565b60805160a051610de86101eb6000396000818161016f0152610919015260008181610130015281816102d10152818161044f01526104f30152610de86000f3fe608060405234801561001057600080fd5b50600436106100f55760003560e01c8063715018a611610097578063b7a8807c11610066578063b7a8807c14610220578063e14f18b114610237578063f2fde38b1461024a578063f3f91fa01461025d57600080fd5b8063715018a6146101f65780638da5cb5b146101fe5780639a0347ba1461020f578063b69ef8a81461021857600080fd5b806347535d7b116100d357806347535d7b146101915780634b6753bc146101a957806351cff8d9146101c05780637098579d146101d557600080fd5b8063100568a3146100fa57806319bd2a5e1461012b578063238ac9331461016a575b600080fd5b60005461011190600160e01b900463ffffffff1681565b60405163ffffffff90911681526020015b60405180910390f35b6101527f000000000000000000000000000000000000000000000000000000000000000081565b6040516001600160a01b039091168152602001610122565b6101527f000000000000000000000000000000000000000000000000000000000000000081565b61019961027d565b6040519015158152602001610122565b60005461011190600160c01b900463ffffffff1681565b6101d36101ce366004610bf0565b6102b0565b005b6101e86101e3366004610c19565b6102fc565b604051908152602001610122565b6101d36104c7565b6000546001600160a01b0316610152565b6101e860015481565b6101e86104db565b60005461011190600160a01b900463ffffffff1681565b6101d3610245366004610c4a565b610575565b6101d3610258366004610bf0565b6106ec565b6101e861026b366004610bf0565b60026020526000908152604090205481565b60008054600160a01b900463ffffffff1642108015906102ab5750600054600160c01b900463ffffffff1642105b905090565b6102b8610765565b60006102c26104db565b90506102f86001600160a01b037f00000000000000000000000000000000000000000000000000000000000000001683836107bf565b5050565b600061030661027d565b6103575760405162461bcd60e51b815260206004820152601860248201527f43494c41697264726f703a206e6f74206f70656e206e6f77000000000000000060448201526064015b60405180910390fd5b61036082610816565b6103ac5760405162461bcd60e51b815260206004820152601d60248201527f43494c41697264726f703a20696e76616c6964207369676e6174757265000000604482015260640161034e565b3360009081526002602052604090205442906103cb9062015180610c8d565b11156104235760405162461bcd60e51b815260206004820152602160248201527f43494c41697264726f703a20616c726561647920636c61696d656420746f64616044820152607960f81b606482015260840161034e565b6000600e6001546104349190610cb3565b33600081815260026020526040902042905590915061047e907f00000000000000000000000000000000000000000000000000000000000000006001600160a01b031690836107bf565b7fd8138f8a3f377c5259ca548e70e4c2de94f129f5a11036a15b69513cba2b426a33604080516001600160a01b039092168252602082018490520160405180910390a192915050565b6104cf610765565b6104d9600061094b565b565b6040516370a0823160e01b81523060048201526000907f00000000000000000000000000000000000000000000000000000000000000006001600160a01b0316906370a082319060240160206040518083038186803b15801561053d57600080fd5b505afa158015610551573d6000803e3d6000fd5b505050506040513d601f19601f820116820180604052508101906102ab9190610cd5565b61057d610765565b61058561027d565b156105d25760405162461bcd60e51b815260206004820152601a60248201527f43494c41697264726f703a20616c7265616479206f70656e6564000000000000604482015260640161034e565b8263ffffffff168263ffffffff161161062d5760405162461bcd60e51b815260206004820152601f60248201527f43494c41697264726f703a20696e76616c69642074696d652077696e646f7700604482015260640161034e565b6000805467ffffffffffffffff60a01b1916600160a01b63ffffffff8681169190910263ffffffff60c01b191691909117600160c01b85831602176001600160e01b0316600160e01b918416918202179091556106886104db565b6106929190610cb3565b6001556000546040805163ffffffff600160a01b840481168252600160c01b90930490921660208301527f28424901ed0b0a7734fd5d8bb545b493be88e5f19ff0c9468d7a3e16dafc8f60910160405180910390a1505050565b6106f4610765565b6001600160a01b0381166107595760405162461bcd60e51b815260206004820152602660248201527f4f776e61626c653a206e6577206f776e657220697320746865207a65726f206160448201526564647265737360d01b606482015260840161034e565b6107628161094b565b50565b6000546001600160a01b031633146104d95760405162461bcd60e51b815260206004820181905260248201527f4f776e61626c653a2063616c6c6572206973206e6f7420746865206f776e6572604482015260640161034e565b604080516001600160a01b038416602482015260448082018490528251808303909101815260649091019091526020810180516001600160e01b031663a9059cbb60e01b17905261081190849061099b565b505050565b604080513360601b6bffffffffffffffffffffffff1916602080830191909152825160148184030181526034830190935282519201919091207f19457468657265756d205369676e6564204d6573736167653a0a33320000000060548301526070820181905260009182906090016040516020818303038152906040528051906020012090506001818560400160208101906108b29190610cee565b604080516000815260208181018084529490945260ff909216908201528635606082015290860135608082015260a0016020604051602081039080840390855afa158015610904573d6000803e3d6000fd5b505050602060405103516001600160a01b03167f00000000000000000000000000000000000000000000000000000000000000006001600160a01b03161492505050919050565b600080546001600160a01b038381166001600160a01b0319831681178455604051919092169283917f8be0079c531659141344cd1fd0a4f28419497f9722a3daafe3b4186f6b6457e09190a35050565b60006109f0826040518060400160405280602081526020017f5361666545524332303a206c6f772d6c6576656c2063616c6c206661696c6564815250856001600160a01b0316610a6d9092919063ffffffff16565b8051909150156108115780806020019051810190610a0e9190610d11565b6108115760405162461bcd60e51b815260206004820152602a60248201527f5361666545524332303a204552433230206f7065726174696f6e20646964206e6044820152691bdd081cdd58d8d9595960b21b606482015260840161034e565b6060610a7c8484600085610a86565b90505b9392505050565b606082471015610ae75760405162461bcd60e51b815260206004820152602660248201527f416464726573733a20696e73756666696369656e742062616c616e636520666f6044820152651c8818d85b1b60d21b606482015260840161034e565b6001600160a01b0385163b610b3e5760405162461bcd60e51b815260206004820152601d60248201527f416464726573733a2063616c6c20746f206e6f6e2d636f6e7472616374000000604482015260640161034e565b600080866001600160a01b03168587604051610b5a9190610d63565b60006040518083038185875af1925050503d8060008114610b97576040519150601f19603f3d011682016040523d82523d6000602084013e610b9c565b606091505b5091509150610bac828286610bb7565b979650505050505050565b60608315610bc6575081610a7f565b825115610bd65782518084602001fd5b8160405162461bcd60e51b815260040161034e9190610d7f565b600060208284031215610c0257600080fd5b81356001600160a01b0381168114610a7f57600080fd5b600060608284031215610c2b57600080fd5b50919050565b803563ffffffff81168114610c4557600080fd5b919050565b600080600060608486031215610c5f57600080fd5b610c6884610c31565b9250610c7660208501610c31565b9150610c8460408501610c31565b90509250925092565b60008219821115610cae57634e487b7160e01b600052601160045260246000fd5b500190565b600082610cd057634e487b7160e01b600052601260045260246000fd5b500490565b600060208284031215610ce757600080fd5b5051919050565b600060208284031215610d0057600080fd5b813560ff81168114610a7f57600080fd5b600060208284031215610d2357600080fd5b81518015158114610a7f57600080fd5b60005b83811015610d4e578181015183820152602001610d36565b83811115610d5d576000848401525b50505050565b60008251610d75818460208701610d33565b9190910192915050565b6020815260008251806020840152610d9e816040850160208701610d33565b601f01601f1916919091016040019291505056fea26469706673582212204a7f71286e2a2936f17a854501d023a5dc5f8be9e9365cf5b20609963a559b0564736f6c63430008090033",
  "devdoc": {
    "kind": "dev",
    "methods": {
      "balance()": {
        "details": "return balance of cil token",
        "returns": {
          "_0": "amount amount of cil token"
        }
      },
      "claim((bytes32,bytes32,uint8))": {
        "details": "claim cil token",
        "params": {
          "sig": "signature of signer"
        },
        "returns": {
          "result": "return claimed cil token amount"
        }
      },
      "constructor": {
        "params": {
          "CIL_": "cil token address",
          "signer_": "signer address"
        }
      },
      "isOpen()": {
        "details": "returns airdrop state",
        "returns": {
          "_0": "bool returns true if airdrop is live"
        }
      },
      "owner()": {
        "details": "Returns the address of the current owner."
      },
      "renounceOwnership()": {
        "details": "Leaves the contract without owner. It will not be possible to call `onlyOwner` functions anymore. Can only be called by the current owner. NOTE: Renouncing ownership will leave the contract without an owner, thereby removing any functionality that is only available to the owner."
      },
      "setPeriod(uint32,uint32,uint32)": {
        "details": "set airdrop settings",
        "params": {
          "closingTime_": "closing time of airdrop",
          "ogNumber_": "number of og member",
          "openingTime_": "opening time of airdrop"
        }
      },
      "transferOwnership(address)": {
        "details": "Transfers ownership of the contract to a new account (`newOwner`). Can only be called by the current owner."
      },
      "withdraw(address)": {
        "details": "withdraw all CIL to another address",
        "params": {
          "recipient_": "address to withdraw cil token"
        }
      }
    },
    "version": 1
  },
  "userdoc": {
    "kind": "user",
    "methods": {},
    "notice": "CIL Airdrop contract, each og can claim 7.1% of total amount.  (https://docs.cilistia.com/cil#tokenomics)",
    "version": 1
  },
  "storageLayout": {
    "storage": [
      {
        "astId": 7,
        "contract": "contracts/utils/CILAirdrop.sol:CILAirdrop",
        "label": "_owner",
        "offset": 0,
        "slot": "0",
        "type": "t_address"
      },
      {
        "astId": 3400,
        "contract": "contracts/utils/CILAirdrop.sol:CILAirdrop",
        "label": "openingTime",
        "offset": 20,
        "slot": "0",
        "type": "t_uint32"
      },
      {
        "astId": 3402,
        "contract": "contracts/utils/CILAirdrop.sol:CILAirdrop",
        "label": "closingTime",
        "offset": 24,
        "slot": "0",
        "type": "t_uint32"
      },
      {
        "astId": 3404,
        "contract": "contracts/utils/CILAirdrop.sol:CILAirdrop",
        "label": "ogNumber",
        "offset": 28,
        "slot": "0",
        "type": "t_uint32"
      },
      {
        "astId": 3406,
        "contract": "contracts/utils/CILAirdrop.sol:CILAirdrop",
        "label": "totalClaimableAmountPerWallet",
        "offset": 0,
        "slot": "1",
        "type": "t_uint256"
      },
      {
        "astId": 3410,
        "contract": "contracts/utils/CILAirdrop.sol:CILAirdrop",
        "label": "lastClaimedTime",
        "offset": 0,
        "slot": "2",
        "type": "t_mapping(t_address,t_uint256)"
      }
    ],
    "types": {
      "t_address": {
        "encoding": "inplace",
        "label": "address",
        "numberOfBytes": "20"
      },
      "t_mapping(t_address,t_uint256)": {
        "encoding": "mapping",
        "key": "t_address",
        "label": "mapping(address => uint256)",
        "numberOfBytes": "32",
        "value": "t_uint256"
      },
      "t_uint256": {
        "encoding": "inplace",
        "label": "uint256",
        "numberOfBytes": "32"
      },
      "t_uint32": {
        "encoding": "inplace",
        "label": "uint32",
        "numberOfBytes": "4"
      }
    }
  }
}