{
  "address": "0xB3A98f578733Add974d8a44e16ccF35758C5bB60",
  "abi": [
    {
      "inputs": [
        {
          "internalType": "address",
          "name": "signer_",
          "type": "address"
        },
        {
          "internalType": "address",
          "name": "multiSig_",
          "type": "address"
        },
        {
          "internalType": "address",
          "name": "USDT_",
          "type": "address"
        },
        {
          "internalType": "address",
          "name": "USDC_",
          "type": "address"
        },
        {
          "internalType": "address",
          "name": "CIL_",
          "type": "address"
        }
      ],
      "stateMutability": "nonpayable",
      "type": "constructor"
    },
    {
      "anonymous": false,
      "inputs": [
        {
          "indexed": true,
          "internalType": "address",
          "name": "_executor",
          "type": "address"
        },
        {
          "indexed": true,
          "internalType": "string",
          "name": "_tokenNameToDeposit",
          "type": "string"
        },
        {
          "indexed": false,
          "internalType": "uint256",
          "name": "_deposit",
          "type": "uint256"
        },
        {
          "indexed": false,
          "internalType": "uint256",
          "name": "_withdraw",
          "type": "uint256"
        }
      ],
      "name": "Buy",
      "type": "event"
    },
    {
      "anonymous": false,
      "inputs": [
        {
          "indexed": true,
          "internalType": "address",
          "name": "previousOwner",
          "type": "address"
        },
        {
          "indexed": true,
          "internalType": "address",
          "name": "newOwner",
          "type": "address"
        }
      ],
      "name": "OwnershipTransferred",
      "type": "event"
    },
    {
      "anonymous": false,
      "inputs": [
        {
          "indexed": false,
          "internalType": "uint256",
          "name": "price",
          "type": "uint256"
        }
      ],
      "name": "PriceChanged",
      "type": "event"
    },
    {
      "anonymous": false,
      "inputs": [
        {
          "indexed": false,
          "internalType": "uint32",
          "name": "openingTime",
          "type": "uint32"
        },
        {
          "indexed": false,
          "internalType": "uint32",
          "name": "closingTime",
          "type": "uint32"
        }
      ],
      "name": "SetPeriod",
      "type": "event"
    },
    {
      "inputs": [],
      "name": "CIL",
      "outputs": [
        {
          "internalType": "address",
          "name": "",
          "type": "address"
        }
      ],
      "stateMutability": "view",
      "type": "function"
    },
    {
      "inputs": [],
      "name": "USDC",
      "outputs": [
        {
          "internalType": "address",
          "name": "",
          "type": "address"
        }
      ],
      "stateMutability": "view",
      "type": "function"
    },
    {
      "inputs": [],
      "name": "USDT",
      "outputs": [
        {
          "internalType": "address",
          "name": "",
          "type": "address"
        }
      ],
      "stateMutability": "view",
      "type": "function"
    },
    {
      "inputs": [],
      "name": "balance",
      "outputs": [
        {
          "internalType": "uint256",
          "name": "",
          "type": "uint256"
        }
      ],
      "stateMutability": "view",
      "type": "function"
    },
    {
      "inputs": [
        {
          "internalType": "uint256",
          "name": "amountToDeposit_",
          "type": "uint256"
        },
        {
          "internalType": "string",
          "name": "tokenNameToDeposit_",
          "type": "string"
        },
        {
          "components": [
            {
              "internalType": "bytes32",
              "name": "r",
              "type": "bytes32"
            },
            {
              "internalType": "bytes32",
              "name": "s",
              "type": "bytes32"
            },
            {
              "internalType": "uint8",
              "name": "v",
              "type": "uint8"
            }
          ],
          "internalType": "struct CILPreSale.Sig",
          "name": "sig_",
          "type": "tuple"
        }
      ],
      "name": "buy",
      "outputs": [
        {
          "internalType": "uint256",
          "name": "result",
          "type": "uint256"
        }
      ],
      "stateMutability": "nonpayable",
      "type": "function"
    },
    {
      "inputs": [],
      "name": "closingTime",
      "outputs": [
        {
          "internalType": "uint32",
          "name": "",
          "type": "uint32"
        }
      ],
      "stateMutability": "view",
      "type": "function"
    },
    {
      "inputs": [],
      "name": "isOpen",
      "outputs": [
        {
          "internalType": "bool",
          "name": "",
          "type": "bool"
        }
      ],
      "stateMutability": "view",
      "type": "function"
    },
    {
      "inputs": [],
      "name": "multiSig",
      "outputs": [
        {
          "internalType": "address",
          "name": "",
          "type": "address"
        }
      ],
      "stateMutability": "view",
      "type": "function"
    },
    {
      "inputs": [],
      "name": "openingTime",
      "outputs": [
        {
          "internalType": "uint32",
          "name": "",
          "type": "uint32"
        }
      ],
      "stateMutability": "view",
      "type": "function"
    },
    {
      "inputs": [],
      "name": "owner",
      "outputs": [
        {
          "internalType": "address",
          "name": "",
          "type": "address"
        }
      ],
      "stateMutability": "view",
      "type": "function"
    },
    {
      "inputs": [],
      "name": "pricePerCIL",
      "outputs": [
        {
          "internalType": "uint256",
          "name": "",
          "type": "uint256"
        }
      ],
      "stateMutability": "view",
      "type": "function"
    },
    {
      "inputs": [],
      "name": "renounceOwnership",
      "outputs": [],
      "stateMutability": "nonpayable",
      "type": "function"
    },
    {
      "inputs": [
        {
          "internalType": "uint256",
          "name": "priceCIL_",
          "type": "uint256"
        }
      ],
      "name": "renouncePrice",
      "outputs": [],
      "stateMutability": "nonpayable",
      "type": "function"
    },
    {
      "inputs": [
        {
          "internalType": "uint32",
          "name": "openingTime_",
          "type": "uint32"
        },
        {
          "internalType": "uint32",
          "name": "closingTime_",
          "type": "uint32"
        }
      ],
      "name": "setPeriod",
      "outputs": [],
      "stateMutability": "nonpayable",
      "type": "function"
    },
    {
      "inputs": [],
      "name": "signer",
      "outputs": [
        {
          "internalType": "address",
          "name": "",
          "type": "address"
        }
      ],
      "stateMutability": "view",
      "type": "function"
    },
    {
      "inputs": [
        {
          "internalType": "address",
          "name": "newOwner",
          "type": "address"
        }
      ],
      "name": "transferOwnership",
      "outputs": [],
      "stateMutability": "nonpayable",
      "type": "function"
    },
    {
      "inputs": [
        {
          "internalType": "address",
          "name": "recipient_",
          "type": "address"
        }
      ],
      "name": "withdraw",
      "outputs": [],
      "stateMutability": "nonpayable",
      "type": "function"
    }
  ],
  "transactionHash": "0x69aee8a0463175113959ee63363d5f980f046ae49140d56b296de29921bf46de",
  "args": [
    "0x6933E63B7786769E4f21F6015566569DBd450cFC",
    "0x5C29Ac1d01aE85Bd93D1Cc1C457c0d4aed46C0AF",
    "0x2Cb2A5e72c2ec00114373708F496f8A90D9C59d8",
    "0xeb1D33F4faE90CA670E8F0AfF88C441f95328A2E",
    "0x87d8B0b77BB87cFE92CcD1D1B2B0656839d3a093"
  ],
  "numDeployments": 2,
  "solcInputHash": "abdc32abd1c0b218d419fc4171b6e4b0",
  "bytecode": "0x6101206040526103206001553480156200001857600080fd5b5060405162001a3238038062001a328339810160408190526200003b91620002b0565b620000463362000243565b6001600160a01b038516620000ad5760405162461bcd60e51b815260206004820152602260248201527f43494c50726553616c653a20696e76616c6964207369676e6572206164647265604482015261737360f01b60648201526084015b60405180910390fd5b6001600160a01b038416620001115760405162461bcd60e51b8152602060048201526024808201527f43494c50726553616c653a20696e76616c6964206d756c7469536967206164646044820152637265737360e01b6064820152608401620000a4565b6001600160a01b038316620001695760405162461bcd60e51b815260206004820181905260248201527f43494c50726553616c653a20696e76616c6964205553445420616464726573736044820152606401620000a4565b6001600160a01b038216620001c15760405162461bcd60e51b815260206004820181905260248201527f43494c50726553616c653a20696e76616c6964205553444320616464726573736044820152606401620000a4565b6001600160a01b038116620002195760405162461bcd60e51b815260206004820152601f60248201527f43494c50726553616c653a20696e76616c69642043494c2061646472657373006044820152606401620000a4565b6001600160a01b039485166101005292841660e052908316608052821660a0521660c05262000320565b600080546001600160a01b038381166001600160a01b0319831681178455604051919092169283917f8be0079c531659141344cd1fd0a4f28419497f9722a3daafe3b4186f6b6457e09190a35050565b80516001600160a01b0381168114620002ab57600080fd5b919050565b600080600080600060a08688031215620002c957600080fd5b620002d48662000293565b9450620002e46020870162000293565b9350620002f46040870162000293565b9250620003046060870162000293565b9150620003146080870162000293565b90509295509295909350565b60805160a05160c05160e0516101005161168e620003a4600039600081816101590152610f550152600081816101800152610bf60152600081816101150152818161045b015281816104b201528181610856015281816109080152610c2001526000818161021c015261076101526000818161028301526106e4015261168e6000f3fe608060405234801561001057600080fd5b506004361061010b5760003560e01c806389a30271116100a2578063b7a8807c11610071578063b7a8807c1461026e578063c54e44eb1461027e578063d6d4c9f9146102a5578063ec3b316c146102b8578063f2fde38b146102cb57600080fd5b806389a30271146102175780638da5cb5b1461023e5780639c4fb7621461024f578063b69ef8a81461026657600080fd5b806347535d7b116100de57806347535d7b146101b75780634b6753bc146101cf57806351cff8d9146101fc578063715018a61461020f57600080fd5b806319bd2a5e14610110578063238ac9331461015457806336e0004a1461017b578063421d25f3146101a2575b600080fd5b6101377f000000000000000000000000000000000000000000000000000000000000000081565b6040516001600160a01b0390911681526020015b60405180910390f35b6101377f000000000000000000000000000000000000000000000000000000000000000081565b6101377f000000000000000000000000000000000000000000000000000000000000000081565b6101b56101b0366004611233565b6102de565b005b6101bf61040b565b604051901515815260200161014b565b6002546101e790640100000000900463ffffffff1681565b60405163ffffffff909116815260200161014b565b6101b561020a366004611266565b61043a565b6101b5610486565b6101377f000000000000000000000000000000000000000000000000000000000000000081565b6000546001600160a01b0316610137565b61025860015481565b60405190815260200161014b565b61025861049a565b6002546101e79063ffffffff1681565b6101377f000000000000000000000000000000000000000000000000000000000000000081565b6101b56102b336600461128f565b610534565b6102586102c63660046112d6565b6105db565b6101b56102d9366004611266565b610cc6565b6102e6610d3f565b6102ee61040b565b156103405760405162461bcd60e51b815260206004820152601a60248201527f43494c50726553616c653a20616c7265616479206f70656e656400000000000060448201526064015b60405180910390fd5b8163ffffffff168163ffffffff161161039b5760405162461bcd60e51b815260206004820152601f60248201527f43494c50726553616c653a20696e76616c69642074696d652077696e646f77006044820152606401610337565b6002805463ffffffff83811664010000000090810267ffffffffffffffff19909316868316179290921792839055604080518483168152929093041660208201527f28424901ed0b0a7734fd5d8bb545b493be88e5f19ff0c9468d7a3e16dafc8f60910160405180910390a15050565b60025460009063ffffffff1642108015906104355750600254640100000000900463ffffffff1642105b905090565b610442610d3f565b600061044c61049a565b90506104826001600160a01b037f0000000000000000000000000000000000000000000000000000000000000000168383610d99565b5050565b61048e610d3f565b6104986000610e01565b565b6040516370a0823160e01b81523060048201526000907f00000000000000000000000000000000000000000000000000000000000000006001600160a01b0316906370a082319060240160206040518083038186803b1580156104fc57600080fd5b505afa158015610510573d6000803e3d6000fd5b505050506040513d601f19601f8201168201806040525081019061043591906113a2565b61053c610d3f565b600081116105a05760405162461bcd60e51b815260206004820152602b60248201527f43494c50726553616c653a207072696365206d7573742062652067726561746560448201526a72207468616e207a65726f60a81b6064820152608401610337565b60018190556040518181527fa6dc15bdb68da224c66db4b3838d9a2b205138e8cff6774e57d0af91e196d6229060200160405180910390a150565b60006105e561040b565b6106315760405162461bcd60e51b815260206004820152601860248201527f43494c50726553616c653a206e6f74206f70656e206e6f7700000000000000006044820152606401610337565b61063c848484610e51565b6106885760405162461bcd60e51b815260206004820152601d60248201527f43494c50726553616c653a20696e76616c6964207369676e61747572650000006044820152606401610337565b604051631554d11560e21b602082015260009060240160405160208183030381529060405280519060200120846040516020016106c591906113e7565b60405160208183030381529060405280519060200120141561070857507f00000000000000000000000000000000000000000000000000000000000000006107d9565b604051635553444360e01b6020820152602401604051602081830303815290604052805190602001208460405160200161074291906113e7565b60405160208183030381529060405280519060200120141561078557507f00000000000000000000000000000000000000000000000000000000000000006107d9565b60405162461bcd60e51b815260206004820152602360248201527f43494c50726553616c653a20696e636f7272656374206465706f73697420746f60448201526235b2b760e91b6064820152608401610337565b6000816001600160a01b031663313ce5676040518163ffffffff1660e01b815260040160206040518083038186803b15801561081457600080fd5b505afa158015610828573d6000803e3d6000fd5b505050506040513d601f19601f8201168201806040525081019061084c9190611412565b60ff1690506000817f00000000000000000000000000000000000000000000000000000000000000006001600160a01b031663313ce5676040518163ffffffff1660e01b815260040160206040518083038186803b1580156108ad57600080fd5b505afa1580156108c1573d6000803e3d6000fd5b505050506040513d601f19601f820116820180604052508101906108e59190611412565b60ff166108f29190611445565b9050600061090182600a611542565b60646001547f00000000000000000000000000000000000000000000000000000000000000006001600160a01b03166370a0823161093c3390565b6040516001600160e01b031960e084901b1681526001600160a01b03909116600482015260240160206040518083038186803b15801561097b57600080fd5b505afa15801561098f573d6000803e3d6000fd5b505050506040513d601f19601f820116820180604052508101906109b391906113a2565b6109bd919061154e565b6109c7919061156d565b6109d1919061156d565b90506109de83600a611542565b6109ea906103e861154e565b6109f4828a61158f565b1115610a5d5760405162461bcd60e51b815260206004820152603260248201527f43494c50726553616c653a206d6178206465706f73697420616d6f756e7420696044820152711cc8090c4c0c0c081c195c881dd85b1b195d60721b6064820152608401610337565b6000610a6761049a565b9050600060015484600a610a7b9190611542565b610a85908c61154e565b610a9090606461154e565b610a9a919061156d565b905081811115610aff5760405162461bcd60e51b815260206004820152602a60248201527f43494c50726553616c653a20696e73756666696369656e7420776974686472616044820152691dd85b08185b5bdd5b9d60b21b6064820152608401610337565b896001600160a01b0387166370a08231336040516001600160e01b031960e084901b1681526001600160a01b03909116600482015260240160206040518083038186803b158015610b4f57600080fd5b505afa158015610b63573d6000803e3d6000fd5b505050506040513d601f19601f82011682018060405250810190610b8791906113a2565b1015610be65760405162461bcd60e51b815260206004820152602860248201527f43494c50726553616c653a20696e73756666696369656e74206465706f7369746044820152672062616c616e636560c01b6064820152608401610337565b610c1b6001600160a01b038716337f00000000000000000000000000000000000000000000000000000000000000008d610f89565b610c4f7f00000000000000000000000000000000000000000000000000000000000000006001600160a01b03163383610d99565b88604051610c5d91906113e7565b6040518091039020610c6c3390565b6001600160a01b03167f40f5583ae6965366e0acfa8dc48c165ed2fce35c84de4966619b6e42e4d5f4c88c84604051610caf929190918252602082015260400190565b60405180910390a3955050505050505b9392505050565b610cce610d3f565b6001600160a01b038116610d335760405162461bcd60e51b815260206004820152602660248201527f4f776e61626c653a206e6577206f776e657220697320746865207a65726f206160448201526564647265737360d01b6064820152608401610337565b610d3c81610e01565b50565b6000546001600160a01b031633146104985760405162461bcd60e51b815260206004820181905260248201527f4f776e61626c653a2063616c6c6572206973206e6f7420746865206f776e65726044820152606401610337565b6040516001600160a01b038316602482015260448101829052610dfc90849063a9059cbb60e01b906064015b60408051601f198184030181529190526020810180516001600160e01b03166001600160e01b031990931692909217909152610fc7565b505050565b600080546001600160a01b038381166001600160a01b0319831681178455604051919092169283917f8be0079c531659141344cd1fd0a4f28419497f9722a3daafe3b4186f6b6457e09190a35050565b600080338585604051602001610e69939291906115a7565b604051602081830303815290604052805190602001209050600081604051602001610ec091907f19457468657265756d205369676e6564204d6573736167653a0a3332000000008152601c810191909152603c0190565b604051602081830303815290604052805190602001209050600181856040016020810190610eee91906115e6565b604080516000815260208181018084529490945260ff909216908201528635606082015290860135608082015260a0016020604051602081039080840390855afa158015610f40573d6000803e3d6000fd5b505050602060405103516001600160a01b03167f00000000000000000000000000000000000000000000000000000000000000006001600160a01b031614925050509392505050565b6040516001600160a01b0380851660248301528316604482015260648101829052610fc19085906323b872dd60e01b90608401610dc5565b50505050565b600061101c826040518060400160405280602081526020017f5361666545524332303a206c6f772d6c6576656c2063616c6c206661696c6564815250856001600160a01b03166110999092919063ffffffff16565b805190915015610dfc578080602001905181019061103a9190611603565b610dfc5760405162461bcd60e51b815260206004820152602a60248201527f5361666545524332303a204552433230206f7065726174696f6e20646964206e6044820152691bdd081cdd58d8d9595960b21b6064820152608401610337565b60606110a884846000856110b0565b949350505050565b6060824710156111115760405162461bcd60e51b815260206004820152602660248201527f416464726573733a20696e73756666696369656e742062616c616e636520666f6044820152651c8818d85b1b60d21b6064820152608401610337565b6001600160a01b0385163b6111685760405162461bcd60e51b815260206004820152601d60248201527f416464726573733a2063616c6c20746f206e6f6e2d636f6e74726163740000006044820152606401610337565b600080866001600160a01b0316858760405161118491906113e7565b60006040518083038185875af1925050503d80600081146111c1576040519150601f19603f3d011682016040523d82523d6000602084013e6111c6565b606091505b50915091506111d68282866111e1565b979650505050505050565b606083156111f0575081610cbf565b8251156112005782518084602001fd5b8160405162461bcd60e51b81526004016103379190611625565b803563ffffffff8116811461122e57600080fd5b919050565b6000806040838503121561124657600080fd5b61124f8361121a565b915061125d6020840161121a565b90509250929050565b60006020828403121561127857600080fd5b81356001600160a01b0381168114610cbf57600080fd5b6000602082840312156112a157600080fd5b5035919050565b634e487b7160e01b600052604160045260246000fd5b6000606082840312156112d057600080fd5b50919050565b600080600060a084860312156112eb57600080fd5b83359250602084013567ffffffffffffffff8082111561130a57600080fd5b818601915086601f83011261131e57600080fd5b813581811115611330576113306112a8565b604051601f8201601f19908116603f01168101908382118183101715611358576113586112a8565b8160405282815289602084870101111561137157600080fd5b82602086016020830137600060208483010152809650505050505061139985604086016112be565b90509250925092565b6000602082840312156113b457600080fd5b5051919050565b60005b838110156113d65781810151838201526020016113be565b83811115610fc15750506000910152565b600082516113f98184602087016113bb565b9190910192915050565b60ff81168114610d3c57600080fd5b60006020828403121561142457600080fd5b8151610cbf81611403565b634e487b7160e01b600052601160045260246000fd5b6000828210156114575761145761142f565b500390565b600181815b8085111561149757816000190482111561147d5761147d61142f565b8085161561148a57918102915b93841c9390800290611461565b509250929050565b6000826114ae5750600161153c565b816114bb5750600061153c565b81600181146114d157600281146114db576114f7565b600191505061153c565b60ff8411156114ec576114ec61142f565b50506001821b61153c565b5060208310610133831016604e8410600b841016171561151a575081810a61153c565b611524838361145c565b80600019048211156115385761153861142f565b0290505b92915050565b6000610cbf838361149f565b60008160001904831182151516156115685761156861142f565b500290565b60008261158a57634e487b7160e01b600052601260045260246000fd5b500490565b600082198211156115a2576115a261142f565b500190565b6bffffffffffffffffffffffff198460601b168152826014820152600082516115d78160348501602087016113bb565b91909101603401949350505050565b6000602082840312156115f857600080fd5b8135610cbf81611403565b60006020828403121561161557600080fd5b81518015158114610cbf57600080fd5b60208152600082518060208401526116448160408501602087016113bb565b601f01601f1916919091016040019291505056fea2646970667358221220b6705d3a16fa73f16646e25ba2ffb8134498efd607c5530f819d5c867ad9cec864736f6c63430008090033",
  "devdoc": {
    "kind": "dev",
    "methods": {
      "balance()": {
        "details": "return balance of cil token",
        "returns": {
          "_0": "amount amount of cil token"
        }
      },
      "buy(uint256,string,(bytes32,bytes32,uint8))": {
        "details": "buy cil token with stable coins such as usdt, usdc",
        "params": {
          "amountToDeposit_": "deposit token amount",
          "sig_": "signature of backend wallet",
          "tokenNameToDeposit_": "token name to deposit"
        },
        "returns": {
          "result": "bought cil token amount"
        }
      },
      "constructor": {
        "params": {
          "CIL_": "cil token address",
          "USDC_": "usdc address",
          "USDT_": "usdt address",
          "multiSig_": "multi sign address",
          "signer_": "signer address"
        }
      },
      "isOpen()": {
        "details": "returns airdrop state",
        "returns": {
          "_0": "bool returns true if airdrop is live"
        }
      },
      "owner()": {
        "details": "Returns the address of the current owner."
      },
      "renounceOwnership()": {
        "details": "Leaves the contract without owner. It will not be possible to call `onlyOwner` functions anymore. Can only be called by the current owner. NOTE: Renouncing ownership will leave the contract without an owner, thereby removing any functionality that is only available to the owner."
      },
      "renouncePrice(uint256)": {
        "details": "renounce price of CIL ($ per CIL)",
        "params": {
          "priceCIL_": "price of the cil token"
        }
      },
      "setPeriod(uint32,uint32)": {
        "details": "set preSale settings",
        "params": {
          "closingTime_": "closing time of airdrop",
          "openingTime_": "opening time of airdrop"
        }
      },
      "transferOwnership(address)": {
        "details": "Transfers ownership of the contract to a new account (`newOwner`). Can only be called by the current owner."
      },
      "withdraw(address)": {
        "details": "withdraw all CIL to another address",
        "params": {
          "recipient_": "address to withdraw cil token"
        }
      }
    },
    "version": 1
  },
  "userdoc": {
    "events": {
      "Buy(address,string,uint256,uint256)": {
        "notice": "fires when buy CIL token"
      },
      "PriceChanged(uint256)": {
        "notice": "fires when change price"
      },
      "SetPeriod(uint32,uint32)": {
        "notice": "fires when set preSale period"
      }
    },
    "kind": "user",
    "methods": {
      "CIL()": {
        "notice": "cil token address"
      },
      "USDT()": {
        "notice": "stable coin addresses"
      },
      "multiSig()": {
        "notice": "multiSig wallet address"
      },
      "openingTime()": {
        "notice": "preSale period"
      },
      "pricePerCIL()": {
        "notice": "price per CIL"
      },
      "signer()": {
        "notice": "signer address"
      }
    },
    "notice": "Cilistia preSale contract address. (https://docs.cilistia.com/cil#tokenomics)",
    "version": 1
  },
  "storageLayout": {
    "storage": [
      {
        "astId": 53,
        "contract": "contracts/utils/CILPreSale.sol:CILPreSale",
        "label": "_owner",
        "offset": 0,
        "slot": "0",
        "type": "t_address"
      },
      {
        "astId": 6387,
        "contract": "contracts/utils/CILPreSale.sol:CILPreSale",
        "label": "pricePerCIL",
        "offset": 0,
        "slot": "1",
        "type": "t_uint256"
      },
      {
        "astId": 6390,
        "contract": "contracts/utils/CILPreSale.sol:CILPreSale",
        "label": "openingTime",
        "offset": 0,
        "slot": "2",
        "type": "t_uint32"
      },
      {
        "astId": 6392,
        "contract": "contracts/utils/CILPreSale.sol:CILPreSale",
        "label": "closingTime",
        "offset": 4,
        "slot": "2",
        "type": "t_uint32"
      }
    ],
    "types": {
      "t_address": {
        "encoding": "inplace",
        "label": "address",
        "numberOfBytes": "20"
      },
      "t_uint256": {
        "encoding": "inplace",
        "label": "uint256",
        "numberOfBytes": "32"
      },
      "t_uint32": {
        "encoding": "inplace",
        "label": "uint32",
        "numberOfBytes": "4"
      }
    }
  }
}