{
  "address": "0x95205F220a2f53f462e7a7C7C8A199155990B180",
  "abi": [
    {
      "inputs": [
        {
          "internalType": "contract INonfungiblePositionManager",
          "name": "_nonfungiblePositionManager",
          "type": "address"
        },
        {
          "internalType": "address",
          "name": "cil",
          "type": "address"
        }
      ],
      "stateMutability": "nonpayable",
      "type": "constructor"
    },
    {
      "inputs": [],
      "name": "CIL",
      "outputs": [
        {
          "internalType": "address",
          "name": "",
          "type": "address"
        }
      ],
      "stateMutability": "view",
      "type": "function"
    },
    {
      "inputs": [],
      "name": "WETH",
      "outputs": [
        {
          "internalType": "address",
          "name": "",
          "type": "address"
        }
      ],
      "stateMutability": "view",
      "type": "function"
    },
    {
      "inputs": [
        {
          "internalType": "uint256",
          "name": "tokenId",
          "type": "uint256"
        }
      ],
      "name": "collectAllFees",
      "outputs": [
        {
          "internalType": "uint256",
          "name": "amount0",
          "type": "uint256"
        },
        {
          "internalType": "uint256",
          "name": "amount1",
          "type": "uint256"
        }
      ],
      "stateMutability": "nonpayable",
      "type": "function"
    },
    {
      "inputs": [
        {
          "internalType": "uint256",
          "name": "tokenId",
          "type": "uint256"
        },
        {
          "internalType": "uint128",
          "name": "liquidity",
          "type": "uint128"
        }
      ],
      "name": "decreaseLiquidity",
      "outputs": [
        {
          "internalType": "uint256",
          "name": "amountCIL",
          "type": "uint256"
        },
        {
          "internalType": "uint256",
          "name": "amountWETH",
          "type": "uint256"
        }
      ],
      "stateMutability": "nonpayable",
      "type": "function"
    },
    {
      "inputs": [
        {
          "internalType": "uint256",
          "name": "",
          "type": "uint256"
        }
      ],
      "name": "deposits",
      "outputs": [
        {
          "internalType": "address",
          "name": "owner",
          "type": "address"
        },
        {
          "internalType": "uint128",
          "name": "liquidity",
          "type": "uint128"
        },
        {
          "internalType": "address",
          "name": "token0",
          "type": "address"
        },
        {
          "internalType": "address",
          "name": "token1",
          "type": "address"
        }
      ],
      "stateMutability": "view",
      "type": "function"
    },
    {
      "inputs": [
        {
          "internalType": "uint256",
          "name": "tokenId",
          "type": "uint256"
        },
        {
          "internalType": "uint256",
          "name": "amountAddCIL",
          "type": "uint256"
        },
        {
          "internalType": "uint256",
          "name": "amountAddWETH",
          "type": "uint256"
        }
      ],
      "name": "increaseLiquidityCurrentRange",
      "outputs": [
        {
          "internalType": "uint128",
          "name": "liquidity",
          "type": "uint128"
        },
        {
          "internalType": "uint256",
          "name": "amountCIL",
          "type": "uint256"
        },
        {
          "internalType": "uint256",
          "name": "amountWETH",
          "type": "uint256"
        }
      ],
      "stateMutability": "nonpayable",
      "type": "function"
    },
    {
      "inputs": [
        {
          "internalType": "uint256",
          "name": "amountCILToMint",
          "type": "uint256"
        },
        {
          "internalType": "uint256",
          "name": "amountWETHToMint",
          "type": "uint256"
        }
      ],
      "name": "mintNewPosition",
      "outputs": [
        {
          "internalType": "uint256",
          "name": "tokenId",
          "type": "uint256"
        },
        {
          "internalType": "uint128",
          "name": "liquidity",
          "type": "uint128"
        },
        {
          "internalType": "uint256",
          "name": "cilAmount",
          "type": "uint256"
        },
        {
          "internalType": "uint256",
          "name": "wethAmount",
          "type": "uint256"
        }
      ],
      "stateMutability": "nonpayable",
      "type": "function"
    },
    {
      "inputs": [],
      "name": "nonfungiblePositionManager",
      "outputs": [
        {
          "internalType": "contract INonfungiblePositionManager",
          "name": "",
          "type": "address"
        }
      ],
      "stateMutability": "view",
      "type": "function"
    },
    {
      "inputs": [
        {
          "internalType": "address",
          "name": "operator",
          "type": "address"
        },
        {
          "internalType": "address",
          "name": "",
          "type": "address"
        },
        {
          "internalType": "uint256",
          "name": "tokenId",
          "type": "uint256"
        },
        {
          "internalType": "bytes",
          "name": "",
          "type": "bytes"
        }
      ],
      "name": "onERC721Received",
      "outputs": [
        {
          "internalType": "bytes4",
          "name": "",
          "type": "bytes4"
        }
      ],
      "stateMutability": "nonpayable",
      "type": "function"
    },
    {
      "inputs": [],
      "name": "poolFee",
      "outputs": [
        {
          "internalType": "uint24",
          "name": "",
          "type": "uint24"
        }
      ],
      "stateMutability": "view",
      "type": "function"
    },
    {
      "inputs": [
        {
          "internalType": "uint256",
          "name": "tokenId",
          "type": "uint256"
        }
      ],
      "name": "retrieveNFT",
      "outputs": [],
      "stateMutability": "nonpayable",
      "type": "function"
    }
  ],
  "transactionHash": "0xdf98570588b706d203924240e1b50612b6b646f5cf33de76c7dbfd7157063605",
  "args": [
    "0xC36442b4a4522E871399CD717aBDD847Ab11FE88",
    "0x54D8b98FA53ce1637FC3E204892cDee18C197572"
  ],
  "numDeployments": 6,
  "solcInputHash": "cad79a5f5032cfdb0285f9aeb8a35f03",
  "bytecode": "0x60e06040523480156200001157600080fd5b5060405162001b6c38038062001b6c8339810160408190526200003491620000ea565b6001600160a01b0380831660c0819052908216608052604080516312a9293f60e21b81529051634aa4a4fc91600480820192602092909190829003018186803b1580156200008157600080fd5b505afa15801562000096573d6000803e3d6000fd5b505050506040513d601f19601f82011682018060405250810190620000bc919062000129565b6001600160a01b031660a05250620001509050565b6001600160a01b0381168114620000e757600080fd5b50565b60008060408385031215620000fe57600080fd5b82516200010b81620000d1565b60208401519092506200011e81620000d1565b809150509250929050565b6000602082840312156200013c57600080fd5b81516200014981620000d1565b9392505050565b60805160a05160c05161191a6200025260003960008181610279015281816103530152818161048e015281816105dc01528181610622015281816106e40152818161091601528181610aa701528181610af201528181610c7401528181610d7001528181610dff0152610e750152600081816101c801528181610564015281816107d0015281816109fe01528181610a5a01528181610ad101528181610b5401528181610bd501528181610dde0152610e3801526000818161011601528181610541015281816107ad015281816109d401528181610a2e01528181610a8601528181610b7a01528181610baf01528181610d4f0152610da9015261191a6000f3fe608060405234801561001057600080fd5b50600436106100a95760003560e01c8063617d6d6e11610071578063617d6d6e1461017857806399d7b594146101b0578063ad5c4648146101c3578063b02c43d0146101ea578063b44a272214610274578063f058ebee1461029b57600080fd5b8063089fe6aa146100ae5780630a1d7c5f146100d0578063150b7a02146100e557806319bd2a5e1461011157806346ce96dd14610150575b600080fd5b6100b7610bb881565b60405162ffffff90911681526020015b60405180910390f35b6100e36100de36600461137a565b6102d6565b005b6100f86100f33660046113ab565b610408565b6040516001600160e01b031990911681526020016100c7565b6101387f000000000000000000000000000000000000000000000000000000000000000081565b6040516001600160a01b0390911681526020016100c7565b61016361015e36600461137a565b610426565b604080519283526020830191909152016100c7565b61018b61018636600461144a565b610521565b604080516001600160801b0390941684526020840192909252908201526060016100c7565b6101636101be36600461148b565b610792565b6101387f000000000000000000000000000000000000000000000000000000000000000081565b6102386101f836600461137a565b60006020819052908152604090208054600182015460028301546003909301546001600160a01b03928316936001600160801b0390921692918216911684565b604080516001600160a01b0395861681526001600160801b039094166020850152918416918301919091529190911660608201526080016100c7565b6101387f000000000000000000000000000000000000000000000000000000000000000081565b6102ae6102a93660046114bb565b6109ca565b604080519485526001600160801b0390931660208501529183015260608201526080016100c7565b6000818152602081905260409020546001600160a01b031633146103315760405162461bcd60e51b815260206004820152600d60248201526c2737ba103a34329037bbb732b960991b60448201526064015b60405180910390fd5b604051632142170760e11b8152306004820152336024820152604481018290527f00000000000000000000000000000000000000000000000000000000000000006001600160a01b0316906342842e0e90606401600060405180830381600087803b15801561039f57600080fd5b505af11580156103b3573d6000803e3d6000fd5b50505060009182525060208190526040902080546001600160a01b031990811682556001820180546fffffffffffffffffffffffffffffffff1916905560028201805482169055600390910180549091169055565b60006104148685610e6e565b50630a85bd0160e11b95945050505050565b6040805160808101825282815230602082019081526001600160801b0382840181815260608401828152945163fc6f786560e01b81528451600482015292516001600160a01b03908116602485015290518216604484015293511660648201526000928392917f00000000000000000000000000000000000000000000000000000000000000009091169063fc6f7865906084016040805180830381600087803b1580156104d357600080fd5b505af11580156104e7573d6000803e3d6000fd5b505050506040513d601f19601f8201168201806040525081019061050b91906114dd565b909350915061051b848484611036565b50915091565b600083815260208190526040812060020154819081906001600160a01b037f000000000000000000000000000000000000000000000000000000000000000081167f000000000000000000000000000000000000000000000000000000000000000082161191610594911633308961107f565b6000878152602081905260409020600301546105bb906001600160a01b031633308861107f565b600087815260208190526040902060020154610601906001600160a01b03167f000000000000000000000000000000000000000000000000000000000000000088611181565b600087815260208190526040902060030154610647906001600160a01b03167f000000000000000000000000000000000000000000000000000000000000000087611181565b60006040518060c00160405280898152602001836106655787610667565b885b8152602001836106775788610679565b875b815260006020808301829052604080840183905242606094850152805163219f5d1760e01b81528551600482015291850151602483015284015160448201529183015160648301526080830151608483015260a083015160a483015291925081906001600160a01b037f0000000000000000000000000000000000000000000000000000000000000000169063219f5d179060c401606060405180830381600087803b15801561072857600080fd5b505af115801561073c573d6000803e3d6000fd5b505050506040513d601f19601f820116820180604052508101906107609190611511565b91985092509050836107725780610774565b815b9550836107815781610783565b805b94505050505093509350939050565b60008281526020819052604081205481906001600160a01b037f000000000000000000000000000000000000000000000000000000000000000081167f000000000000000000000000000000000000000000000000000000000000000082161191339116146108335760405162461bcd60e51b815260206004820152600d60248201526c2737ba103a34329037bbb732b960991b6044820152606401610328565b6000858152602081905260409020600101546001600160801b0390811690851611156108a15760405162461bcd60e51b815260206004820152601860248201527f496e76616c6964206c697175696469747920616d6f756e7400000000000000006044820152606401610328565b6040805160a0810182528681526001600160801b038087166020830190815260008385018181526060850182815242608087019081529651630624e65f60e11b815286516004820152935190941660248401525160448301529151606482015292516084840152909181906001600160a01b037f00000000000000000000000000000000000000000000000000000000000000001690630c49ccbe9060a4016040805180830381600087803b15801561095957600080fd5b505af115801561096d573d6000803e3d6000fd5b505050506040513d601f19601f8201168201806040525081019061099191906114dd565b90925090506109a1888383611036565b836109ac57806109ae565b815b9550836109bb57816109bd565b805b9450505050509250929050565b60008060008060007f00000000000000000000000000000000000000000000000000000000000000006001600160a01b03167f00000000000000000000000000000000000000000000000000000000000000006001600160a01b0316119050610a557f000000000000000000000000000000000000000000000000000000000000000033308a61107f565b610a817f000000000000000000000000000000000000000000000000000000000000000033308961107f565b610acc7f00000000000000000000000000000000000000000000000000000000000000007f000000000000000000000000000000000000000000000000000000000000000089611181565b610b177f00000000000000000000000000000000000000000000000000000000000000007f000000000000000000000000000000000000000000000000000000000000000088611181565b6000603c610b28620d89e71961155e565b610b329190611581565b610b3d90603c6115c9565b9050600060405180610160016040528084610b78577f0000000000000000000000000000000000000000000000000000000000000000610b9a565b7f00000000000000000000000000000000000000000000000000000000000000005b6001600160a01b0316815260200184610bd3577f0000000000000000000000000000000000000000000000000000000000000000610bf5565b7f00000000000000000000000000000000000000000000000000000000000000005b6001600160a01b03168152610bb86020820152604001610c17846000196115c9565b60020b81526020018360020b815260200184610c335789610c35565b8a5b815260200184610c45578a610c47565b895b81526020016000815260200160008152602001306001600160a01b031681526020014281525090506000807f00000000000000000000000000000000000000000000000000000000000000006001600160a01b03166388316456846040518263ffffffff1660e01b8152600401610cbe9190611656565b608060405180830381600087803b158015610cd857600080fd5b505af1158015610cec573d6000803e3d6000fd5b505050506040513d601f19601f82011682018060405250810190610d10919061171a565b929b5090995092509050610d24338a610e6e565b84610d2f5780610d31565b815b965084610d3e5781610d40565b805b95508a871015610dd157610d967f00000000000000000000000000000000000000000000000000000000000000007f00000000000000000000000000000000000000000000000000000000000000006000611181565b6000610da2888d611758565b9050610dcf7f00000000000000000000000000000000000000000000000000000000000000003383611281565b505b89861015610e6057610e257f00000000000000000000000000000000000000000000000000000000000000007f00000000000000000000000000000000000000000000000000000000000000006000611181565b6000610e31878c611758565b9050610e5e7f00000000000000000000000000000000000000000000000000000000000000003383611281565b505b505050505092959194509250565b60008060007f00000000000000000000000000000000000000000000000000000000000000006001600160a01b03166399fbab88856040518263ffffffff1660e01b8152600401610ec191815260200190565b6101806040518083038186803b158015610eda57600080fd5b505afa158015610eee573d6000803e3d6000fd5b505050506040513d601f19601f82011682018060405250810190610f12919061179f565b5050505097505050509450945050506040518060800160405280866001600160a01b03168152602001826001600160801b03168152602001846001600160a01b03168152602001836001600160a01b031681525060008086815260200190815260200160002060008201518160000160006101000a8154816001600160a01b0302191690836001600160a01b0316021790555060208201518160010160006101000a8154816001600160801b0302191690836001600160801b0316021790555060408201518160020160006101000a8154816001600160a01b0302191690836001600160a01b0316021790555060608201518160030160006101000a8154816001600160a01b0302191690836001600160a01b031602179055509050505050505050565b6000838152602081905260409020805460028201546003909201546001600160a01b03918216928216911661106c828487611281565b611077818486611281565b505050505050565b604080516001600160a01b0385811660248301528481166044830152606480830185905283518084039091018152608490920183526020820180516001600160e01b03166323b872dd60e01b17905291516000928392908816916110e39190611880565b6000604051808303816000865af19150503d8060008114611120576040519150601f19603f3d011682016040523d82523d6000602084013e611125565b606091505b509150915081801561114f57508051158061114f57508080602001905181019061114f91906118bb565b6110775760405162461bcd60e51b815260206004820152600360248201526229aa2360e91b6044820152606401610328565b604080516001600160a01b038481166024830152604480830185905283518084039091018152606490920183526020820180516001600160e01b031663095ea7b360e01b17905291516000928392908716916111dd9190611880565b6000604051808303816000865af19150503d806000811461121a576040519150601f19603f3d011682016040523d82523d6000602084013e61121f565b606091505b509150915081801561124957508051158061124957508080602001905181019061124991906118bb565b61127a5760405162461bcd60e51b8152602060048201526002602482015261534160f01b6044820152606401610328565b5050505050565b604080516001600160a01b038481166024830152604480830185905283518084039091018152606490920183526020820180516001600160e01b031663a9059cbb60e01b17905291516000928392908716916112dd9190611880565b6000604051808303816000865af19150503d806000811461131a576040519150601f19603f3d011682016040523d82523d6000602084013e61131f565b606091505b509150915081801561134957508051158061134957508080602001905181019061134991906118bb565b61127a5760405162461bcd60e51b815260206004820152600260248201526114d560f21b6044820152606401610328565b60006020828403121561138c57600080fd5b5035919050565b6001600160a01b03811681146113a857600080fd5b50565b6000806000806000608086880312156113c357600080fd5b85356113ce81611393565b945060208601356113de81611393565b935060408601359250606086013567ffffffffffffffff8082111561140257600080fd5b818801915088601f83011261141657600080fd5b81358181111561142557600080fd5b89602082850101111561143757600080fd5b9699959850939650602001949392505050565b60008060006060848603121561145f57600080fd5b505081359360208301359350604090920135919050565b6001600160801b03811681146113a857600080fd5b6000806040838503121561149e57600080fd5b8235915060208301356114b081611476565b809150509250929050565b600080604083850312156114ce57600080fd5b50508035926020909101359150565b600080604083850312156114f057600080fd5b505080516020909101519092909150565b805161150c81611476565b919050565b60008060006060848603121561152657600080fd5b835161153181611476565b602085015160409095015190969495509392505050565b634e487b7160e01b600052601160045260246000fd5b60008160020b627fffff1981141561157857611578611548565b60000392915050565b60008160020b8360020b806115a657634e487b7160e01b600052601260045260246000fd5b627fffff198214600019821416156115c0576115c0611548565b90059392505050565b60008160020b8360020b627fffff6000821360008413838304851182821616156115f5576115f5611548565b627fffff19600085128281168783058712161561161457611614611548565b6000871292508582058712848416161561163057611630611548565b8585058712818416161561164657611646611548565b5050509290910295945050505050565b81516001600160a01b031681526101608101602083015161168260208401826001600160a01b03169052565b506040830151611699604084018262ffffff169052565b5060608301516116ae606084018260020b9052565b5060808301516116c3608084018260020b9052565b5060a083015160a083015260c083015160c083015260e083015160e083015261010080840151818401525061012080840151611709828501826001600160a01b03169052565b505061014092830151919092015290565b6000806000806080858703121561173057600080fd5b84519350602085015161174281611476565b6040860151606090960151949790965092505050565b60008282101561176a5761176a611548565b500390565b805161150c81611393565b805162ffffff8116811461150c57600080fd5b8051600281900b811461150c57600080fd5b6000806000806000806000806000806000806101808d8f0312156117c257600080fd5b8c516bffffffffffffffffffffffff811681146117de57600080fd5b9b506117ec60208e0161176f565b9a506117fa60408e0161176f565b995061180860608e0161176f565b985061181660808e0161177a565b975061182460a08e0161178d565b965061183260c08e0161178d565b955061184060e08e01611501565b94506101008d015193506101208d0151925061185f6101408e01611501565b915061186e6101608e01611501565b90509295989b509295989b509295989b565b6000825160005b818110156118a15760208186018101518583015201611887565b818111156118b0576000828501525b509190910192915050565b6000602082840312156118cd57600080fd5b815180151581146118dd57600080fd5b939250505056fea26469706673582212205e16e00e7df594358877bb9a72d6a62c1ae471a581b915361481746584c4036c64736f6c63430008090033",
  "devdoc": {
    "kind": "dev",
    "methods": {
      "collectAllFees(uint256)": {
        "details": "The contract must hold the erc721 token before it can collect fees",
        "params": {
          "tokenId": "The id of the erc721 token"
        },
        "returns": {
          "amount0": "The amount of fees collected in token0",
          "amount1": "The amount of fees collected in token1"
        }
      },
      "decreaseLiquidity(uint256,uint128)": {
        "params": {
          "liquidity": "The liquidity amount to remove",
          "tokenId": "The id of the erc721 token"
        },
        "returns": {
          "amountCIL": "The amount received back in token0",
          "amountWETH": "The amount returned back in token1"
        }
      },
      "increaseLiquidityCurrentRange(uint256,uint256,uint256)": {
        "details": "Pool must be initialized already to add liquidity",
        "params": {
          "amountCIL": "The amount to add of token0",
          "amountWETH": "The amount to add of token1",
          "tokenId": "The id of the erc721 token"
        }
      },
      "mintNewPosition(uint256,uint256)": {
        "params": {
          "amountCILToMint": "The amount of token0 to deposit",
          "amountWETHToMint": "The amount of token1 to deposit"
        },
        "returns": {
          "cilAmount": "The amount of token0",
          "liquidity": "The amount of liquidity for the position",
          "tokenId": "The id of the newly minted ERC721",
          "wethAmount": "The amount of token1"
        }
      },
      "retrieveNFT(uint256)": {
        "params": {
          "tokenId": "The id of the erc721"
        }
      }
    },
    "stateVariables": {
      "deposits": {
        "details": "deposits[tokenId] => Deposit"
      }
    },
    "version": 1
  },
  "userdoc": {
    "kind": "user",
    "methods": {
      "collectAllFees(uint256)": {
        "notice": "Collects the fees associated with provided liquidity"
      },
      "decreaseLiquidity(uint256,uint128)": {
        "notice": "A function that decreases the current liquidity by half. An example to show how to call the `decreaseLiquidity` function defined in periphery."
      },
      "increaseLiquidityCurrentRange(uint256,uint256,uint256)": {
        "notice": "Increases liquidity in the current range"
      },
      "mintNewPosition(uint256,uint256)": {
        "notice": "Calls the mint function defined in periphery"
      },
      "retrieveNFT(uint256)": {
        "notice": "Transfers the NFT to the owner"
      }
    },
    "version": 1
  },
  "storageLayout": {
    "storage": [
      {
        "astId": 14150,
        "contract": "contracts/utils/LiquidityExtension.sol:LiquidityExtension",
        "label": "deposits",
        "offset": 0,
        "slot": "0",
        "type": "t_mapping(t_uint256,t_struct(Deposit)14144_storage)"
      }
    ],
    "types": {
      "t_address": {
        "encoding": "inplace",
        "label": "address",
        "numberOfBytes": "20"
      },
      "t_mapping(t_uint256,t_struct(Deposit)14144_storage)": {
        "encoding": "mapping",
        "key": "t_uint256",
        "label": "mapping(uint256 => struct LiquidityExtension.Deposit)",
        "numberOfBytes": "32",
        "value": "t_struct(Deposit)14144_storage"
      },
      "t_struct(Deposit)14144_storage": {
        "encoding": "inplace",
        "label": "struct LiquidityExtension.Deposit",
        "members": [
          {
            "astId": 14137,
            "contract": "contracts/utils/LiquidityExtension.sol:LiquidityExtension",
            "label": "owner",
            "offset": 0,
            "slot": "0",
            "type": "t_address"
          },
          {
            "astId": 14139,
            "contract": "contracts/utils/LiquidityExtension.sol:LiquidityExtension",
            "label": "liquidity",
            "offset": 0,
            "slot": "1",
            "type": "t_uint128"
          },
          {
            "astId": 14141,
            "contract": "contracts/utils/LiquidityExtension.sol:LiquidityExtension",
            "label": "token0",
            "offset": 0,
            "slot": "2",
            "type": "t_address"
          },
          {
            "astId": 14143,
            "contract": "contracts/utils/LiquidityExtension.sol:LiquidityExtension",
            "label": "token1",
            "offset": 0,
            "slot": "3",
            "type": "t_address"
          }
        ],
        "numberOfBytes": "128"
      },
      "t_uint128": {
        "encoding": "inplace",
        "label": "uint128",
        "numberOfBytes": "16"
      },
      "t_uint256": {
        "encoding": "inplace",
        "label": "uint256",
        "numberOfBytes": "32"
      }
    }
  }
}