{
  "address": "0x0dCfBFA6FBB7c39005C53DaD776fCC4A87a33f87",
  "abi": [
    {
      "inputs": [
        {
          "internalType": "address",
          "name": "cil_",
          "type": "address"
        },
        {
          "internalType": "address",
          "name": "multiSig_",
          "type": "address"
        }
      ],
      "stateMutability": "nonpayable",
      "type": "constructor"
    },
    {
      "anonymous": false,
      "inputs": [
        {
          "indexed": false,
          "internalType": "address",
          "name": "account",
          "type": "address"
        }
      ],
      "name": "AccountBlocked",
      "type": "event"
    },
    {
      "anonymous": false,
      "inputs": [
        {
          "indexed": true,
          "internalType": "bytes32",
          "name": "key",
          "type": "bytes32"
        }
      ],
      "name": "OfferCanceled",
      "type": "event"
    },
    {
      "anonymous": false,
      "inputs": [
        {
          "indexed": false,
          "internalType": "bytes32",
          "name": "offerKey",
          "type": "bytes32"
        },
        {
          "indexed": true,
          "internalType": "bytes32",
          "name": "positionKey",
          "type": "bytes32"
        },
        {
          "indexed": false,
          "internalType": "uint128",
          "name": "amount",
          "type": "uint128"
        },
        {
          "indexed": false,
          "internalType": "string",
          "name": "terms",
          "type": "string"
        }
      ],
      "name": "OfferCreated",
      "type": "event"
    },
    {
      "anonymous": false,
      "inputs": [
        {
          "indexed": true,
          "internalType": "bytes32",
          "name": "key",
          "type": "bytes32"
        }
      ],
      "name": "OfferReleased",
      "type": "event"
    },
    {
      "anonymous": false,
      "inputs": [
        {
          "indexed": true,
          "internalType": "address",
          "name": "previousOwner",
          "type": "address"
        },
        {
          "indexed": true,
          "internalType": "address",
          "name": "newOwner",
          "type": "address"
        }
      ],
      "name": "OwnershipTransferred",
      "type": "event"
    },
    {
      "anonymous": false,
      "inputs": [
        {
          "indexed": false,
          "internalType": "bytes32",
          "name": "key",
          "type": "bytes32"
        },
        {
          "indexed": false,
          "internalType": "uint128",
          "name": "price",
          "type": "uint128"
        },
        {
          "indexed": false,
          "internalType": "uint128",
          "name": "amount",
          "type": "uint128"
        },
        {
          "indexed": false,
          "internalType": "uint128",
          "name": "minAmount",
          "type": "uint128"
        },
        {
          "indexed": false,
          "internalType": "uint128",
          "name": "maxAmount",
          "type": "uint128"
        },
        {
          "indexed": false,
          "internalType": "bool",
          "name": "priceType",
          "type": "bool"
        },
        {
          "indexed": false,
          "internalType": "uint8",
          "name": "paymentMethod",
          "type": "uint8"
        },
        {
          "indexed": true,
          "internalType": "address",
          "name": "token",
          "type": "address"
        },
        {
          "indexed": true,
          "internalType": "address",
          "name": "creator",
          "type": "address"
        },
        {
          "indexed": false,
          "internalType": "string",
          "name": "terms",
          "type": "string"
        }
      ],
      "name": "PositionCreated",
      "type": "event"
    },
    {
      "anonymous": false,
      "inputs": [
        {
          "indexed": true,
          "internalType": "bytes32",
          "name": "key",
          "type": "bytes32"
        },
        {
          "indexed": false,
          "internalType": "uint128",
          "name": "amount",
          "type": "uint128"
        }
      ],
      "name": "PositionUpdated",
      "type": "event"
    },
    {
      "inputs": [
        {
          "internalType": "bytes32",
          "name": "key",
          "type": "bytes32"
        }
      ],
      "name": "cancelOffer",
      "outputs": [],
      "stateMutability": "nonpayable",
      "type": "function"
    },
    {
      "inputs": [],
      "name": "cil",
      "outputs": [
        {
          "internalType": "address",
          "name": "",
          "type": "address"
        }
      ],
      "stateMutability": "view",
      "type": "function"
    },
    {
      "inputs": [],
      "name": "cilPair",
      "outputs": [
        {
          "internalType": "address",
          "name": "",
          "type": "address"
        }
      ],
      "stateMutability": "view",
      "type": "function"
    },
    {
      "inputs": [],
      "name": "cilStaking",
      "outputs": [
        {
          "internalType": "address",
          "name": "",
          "type": "address"
        }
      ],
      "stateMutability": "view",
      "type": "function"
    },
    {
      "inputs": [
        {
          "internalType": "bytes32",
          "name": "positionKey",
          "type": "bytes32"
        },
        {
          "internalType": "uint128",
          "name": "amount",
          "type": "uint128"
        },
        {
          "internalType": "string",
          "name": "terms",
          "type": "string"
        }
      ],
      "name": "createOffer",
      "outputs": [],
      "stateMutability": "nonpayable",
      "type": "function"
    },
    {
      "inputs": [
        {
          "components": [
            {
              "internalType": "uint128",
              "name": "price",
              "type": "uint128"
            },
            {
              "internalType": "uint128",
              "name": "amount",
              "type": "uint128"
            },
            {
              "internalType": "uint128",
              "name": "minAmount",
              "type": "uint128"
            },
            {
              "internalType": "uint128",
              "name": "maxAmount",
              "type": "uint128"
            },
            {
              "internalType": "bool",
              "name": "priceType",
              "type": "bool"
            },
            {
              "internalType": "uint8",
              "name": "paymentMethod",
              "type": "uint8"
            },
            {
              "internalType": "address",
              "name": "token",
              "type": "address"
            }
          ],
          "internalType": "struct MarketPlace.PositionCreateParam",
          "name": "params",
          "type": "tuple"
        },
        {
          "internalType": "string",
          "name": "terms",
          "type": "string"
        }
      ],
      "name": "createPosition",
      "outputs": [],
      "stateMutability": "payable",
      "type": "function"
    },
    {
      "inputs": [
        {
          "internalType": "bytes32",
          "name": "key",
          "type": "bytes32"
        },
        {
          "internalType": "uint128",
          "name": "amount",
          "type": "uint128"
        }
      ],
      "name": "decreasePosition",
      "outputs": [],
      "stateMutability": "nonpayable",
      "type": "function"
    },
    {
      "inputs": [],
      "name": "feePoint",
      "outputs": [
        {
          "internalType": "uint256",
          "name": "",
          "type": "uint256"
        }
      ],
      "stateMutability": "view",
      "type": "function"
    },
    {
      "inputs": [
        {
          "internalType": "bytes32",
          "name": "key",
          "type": "bytes32"
        }
      ],
      "name": "forceCancelOffer",
      "outputs": [],
      "stateMutability": "nonpayable",
      "type": "function"
    },
    {
      "inputs": [
        {
          "internalType": "bytes32",
          "name": "key",
          "type": "bytes32"
        }
      ],
      "name": "forceRemovePosition",
      "outputs": [],
      "stateMutability": "nonpayable",
      "type": "function"
    },
    {
      "inputs": [],
      "name": "getCilPrice",
      "outputs": [
        {
          "internalType": "uint256",
          "name": "",
          "type": "uint256"
        }
      ],
      "stateMutability": "view",
      "type": "function"
    },
    {
      "inputs": [
        {
          "internalType": "bytes32",
          "name": "positionKey",
          "type": "bytes32"
        },
        {
          "internalType": "uint256",
          "name": "amount",
          "type": "uint256"
        },
        {
          "internalType": "address",
          "name": "creator",
          "type": "address"
        },
        {
          "internalType": "uint256",
          "name": "timestamp",
          "type": "uint256"
        }
      ],
      "name": "getOfferKey",
      "outputs": [
        {
          "internalType": "bytes32",
          "name": "",
          "type": "bytes32"
        }
      ],
      "stateMutability": "pure",
      "type": "function"
    },
    {
      "inputs": [
        {
          "internalType": "uint8",
          "name": "paymentMethod",
          "type": "uint8"
        },
        {
          "internalType": "uint128",
          "name": "price",
          "type": "uint128"
        },
        {
          "internalType": "address",
          "name": "token",
          "type": "address"
        },
        {
          "internalType": "address",
          "name": "creator",
          "type": "address"
        },
        {
          "internalType": "uint256",
          "name": "amount",
          "type": "uint256"
        },
        {
          "internalType": "uint128",
          "name": "minAmount",
          "type": "uint128"
        },
        {
          "internalType": "uint128",
          "name": "maxAmount",
          "type": "uint128"
        },
        {
          "internalType": "uint256",
          "name": "timestamp",
          "type": "uint256"
        }
      ],
      "name": "getPositionKey",
      "outputs": [
        {
          "internalType": "bytes32",
          "name": "",
          "type": "bytes32"
        }
      ],
      "stateMutability": "pure",
      "type": "function"
    },
    {
      "inputs": [
        {
          "internalType": "address",
          "name": "user",
          "type": "address"
        }
      ],
      "name": "getStakedCil",
      "outputs": [
        {
          "internalType": "uint256",
          "name": "totalAmount",
          "type": "uint256"
        }
      ],
      "stateMutability": "view",
      "type": "function"
    },
    {
      "inputs": [
        {
          "internalType": "address",
          "name": "token",
          "type": "address"
        }
      ],
      "name": "getTokenPrice",
      "outputs": [
        {
          "internalType": "uint256",
          "name": "",
          "type": "uint256"
        }
      ],
      "stateMutability": "view",
      "type": "function"
    },
    {
      "inputs": [
        {
          "internalType": "bytes32",
          "name": "key",
          "type": "bytes32"
        },
        {
          "internalType": "uint128",
          "name": "amount",
          "type": "uint128"
        }
      ],
      "name": "increasePosition",
      "outputs": [],
      "stateMutability": "payable",
      "type": "function"
    },
    {
      "inputs": [
        {
          "internalType": "address",
          "name": "cilStaking_",
          "type": "address"
        },
        {
          "internalType": "address",
          "name": "cilPair_",
          "type": "address"
        },
        {
          "internalType": "address",
          "name": "ethPricefeed_",
          "type": "address"
        }
      ],
      "name": "init",
      "outputs": [],
      "stateMutability": "nonpayable",
      "type": "function"
    },
    {
      "inputs": [
        {
          "internalType": "address",
          "name": "",
          "type": "address"
        }
      ],
      "name": "isBlocked",
      "outputs": [
        {
          "internalType": "bool",
          "name": "",
          "type": "bool"
        }
      ],
      "stateMutability": "view",
      "type": "function"
    },
    {
      "inputs": [],
      "name": "multiSig",
      "outputs": [
        {
          "internalType": "address",
          "name": "",
          "type": "address"
        }
      ],
      "stateMutability": "view",
      "type": "function"
    },
    {
      "inputs": [
        {
          "internalType": "bytes32",
          "name": "",
          "type": "bytes32"
        }
      ],
      "name": "offers",
      "outputs": [
        {
          "internalType": "bytes32",
          "name": "positionKey",
          "type": "bytes32"
        },
        {
          "internalType": "uint128",
          "name": "amount",
          "type": "uint128"
        },
        {
          "internalType": "address",
          "name": "creator",
          "type": "address"
        },
        {
          "internalType": "bool",
          "name": "released",
          "type": "bool"
        },
        {
          "internalType": "bool",
          "name": "canceled",
          "type": "bool"
        }
      ],
      "stateMutability": "view",
      "type": "function"
    },
    {
      "inputs": [],
      "name": "owner",
      "outputs": [
        {
          "internalType": "address",
          "name": "",
          "type": "address"
        }
      ],
      "stateMutability": "view",
      "type": "function"
    },
    {
      "inputs": [
        {
          "internalType": "bytes32",
          "name": "",
          "type": "bytes32"
        }
      ],
      "name": "positions",
      "outputs": [
        {
          "internalType": "uint128",
          "name": "price",
          "type": "uint128"
        },
        {
          "internalType": "uint128",
          "name": "amount",
          "type": "uint128"
        },
        {
          "internalType": "uint128",
          "name": "minAmount",
          "type": "uint128"
        },
        {
          "internalType": "uint128",
          "name": "maxAmount",
          "type": "uint128"
        },
        {
          "internalType": "uint128",
          "name": "offerredAmount",
          "type": "uint128"
        },
        {
          "internalType": "bool",
          "name": "priceType",
          "type": "bool"
        },
        {
          "internalType": "uint8",
          "name": "paymentMethod",
          "type": "uint8"
        },
        {
          "internalType": "address",
          "name": "token",
          "type": "address"
        },
        {
          "internalType": "address",
          "name": "creator",
          "type": "address"
        }
      ],
      "stateMutability": "view",
      "type": "function"
    },
    {
      "inputs": [
        {
          "internalType": "address",
          "name": "",
          "type": "address"
        }
      ],
      "name": "pricefeeds",
      "outputs": [
        {
          "internalType": "address",
          "name": "",
          "type": "address"
        }
      ],
      "stateMutability": "view",
      "type": "function"
    },
    {
      "inputs": [
        {
          "internalType": "bytes32",
          "name": "key",
          "type": "bytes32"
        }
      ],
      "name": "releaseOffer",
      "outputs": [],
      "stateMutability": "nonpayable",
      "type": "function"
    },
    {
      "inputs": [],
      "name": "renounceOwnership",
      "outputs": [],
      "stateMutability": "nonpayable",
      "type": "function"
    },
    {
      "inputs": [
        {
          "internalType": "address",
          "name": "token",
          "type": "address"
        },
        {
          "internalType": "address",
          "name": "pricefeed",
          "type": "address"
        }
      ],
      "name": "setPriceFeed",
      "outputs": [],
      "stateMutability": "nonpayable",
      "type": "function"
    },
    {
      "inputs": [
        {
          "internalType": "address",
          "name": "newOwner",
          "type": "address"
        }
      ],
      "name": "transferOwnership",
      "outputs": [],
      "stateMutability": "nonpayable",
      "type": "function"
    }
  ],
  "transactionHash": "0x2dd3213bb66b3e2205a7d2e1f76cacad2f88b5f63e193e46b89441cb2ec4f70e",
  "args": [
    "0x18295f0562A3915459A81EaAe246abf483eB2532",
    "0x5C29Ac1d01aE85Bd93D1Cc1C457c0d4aed46C0AF"
  ],
  "numDeployments": 1,
  "solcInputHash": "ab35409c4a0e8936ad9663afc5b60def",
  "bytecode": "0x60c060405260646006553480156200001657600080fd5b506040516200339a3803806200339a8339810160408190526200003991620000c9565b62000044336200005c565b6001600160a01b0391821660a0521660805262000101565b600080546001600160a01b038381166001600160a01b0319831681178455604051919092169283917f8be0079c531659141344cd1fd0a4f28419497f9722a3daafe3b4186f6b6457e09190a35050565b80516001600160a01b0381168114620000c457600080fd5b919050565b60008060408385031215620000dd57600080fd5b620000e883620000ac565b9150620000f860208401620000ac565b90509250929050565b60805160a05161323462000166600039600081816105910152818161099601528181611271015281816118220152818161218201526124ff0152600081816102a901528181610d9601528181610e1101528181611f7201526120bf01526132346000f3fe60806040526004361061019c5760003560e01c806376e11286116100ec578063cb6ca29e1161008a578063f16e019611610064578063f16e019614610613578063f2fde38b14610628578063f952279e14610648578063fbac39511461066857600080fd5b8063cb6ca29e146105b3578063d02641a0146105d3578063ee63e515146105f357600080fd5b80639c182ef4116100c65780639c182ef41461052c5780639f6865851461054c578063b054504e1461056c578063b2c776381461057f57600080fd5b806376e11286146104ce578063813d5817146104ee5780638da5cb5b1461050e57600080fd5b806335cba5a311610159578063514ea4bf11610133578063514ea4bf1461036f5780635e35ab6a1461046357806367e0fa7f14610499578063715018a6146104b957600080fd5b806335cba5a31461025f57806336e0004a14610297578063474d3ff0146102cb57600080fd5b806309a139f0146101a157806315018126146101b6578063184b9559146101df5780632f78f766146101ff578063331106d51461021f5780633503ca151461023f575b600080fd5b6101b46101af366004612895565b6106a8565b005b3480156101c257600080fd5b506101cc60065481565b6040519081526020015b60405180910390f35b3480156101eb57600080fd5b506101b46101fa3660046128d6565b61094d565b34801561020b57600080fd5b506101cc61021a366004612921565b610bb9565b34801561022b57600080fd5b506101cc61023a36600461296f565b610c0f565b34801561024b57600080fd5b506101b461025a3660046129fe565b610cac565b34801561026b57600080fd5b5060015461027f906001600160a01b031681565b6040516001600160a01b0390911681526020016101d6565b3480156102a357600080fd5b5061027f7f000000000000000000000000000000000000000000000000000000000000000081565b3480156102d757600080fd5b5061032f6102e63660046129fe565b60056020526000908152604090208054600182015460029092015490916001600160801b0316906001600160a01b0381169060ff600160a01b8204811691600160a81b90041685565b604080519586526001600160801b0390941660208601526001600160a01b039092169284019290925290151560608301521515608082015260a0016101d6565b34801561037b57600080fd5b506103fb61038a3660046129fe565b6004602081905260009182526040909120805460018201546002830154600384015493909401546001600160801b0380841695600160801b9485900482169582851695948590048316949282169392820460ff90811693600160881b90930416916001600160a01b03918216911689565b604080516001600160801b039a8b168152988a1660208a0152968916968801969096529387166060870152959091166080850152151560a084015260ff90931660c08301526001600160a01b0392831660e083015291909116610100820152610120016101d6565b34801561046f57600080fd5b5061027f61047e366004612a17565b6003602052600090815260409020546001600160a01b031681565b3480156104a557600080fd5b506101b46104b4366004612b00565b610f2a565b3480156104c557600080fd5b506101b46115e8565b3480156104da57600080fd5b506101b46104e9366004612b57565b6115fc565b3480156104fa57600080fd5b5060025461027f906001600160a01b031681565b34801561051a57600080fd5b506000546001600160a01b031661027f565b34801561053857600080fd5b506101cc610547366004612a17565b611632565b34801561055857600080fd5b506101b46105673660046129fe565b6116e2565b6101b461057a366004612b9e565b6117f3565b34801561058b57600080fd5b5061027f7f000000000000000000000000000000000000000000000000000000000000000081565b3480156105bf57600080fd5b506101b46105ce3660046129fe565b611cc0565b3480156105df57600080fd5b506101cc6105ee366004612a17565b61217e565b3480156105ff57600080fd5b506101b461060e366004612895565b612296565b34801561061f57600080fd5b506101cc6124fa565b34801561063457600080fd5b506101b4610643366004612a17565b6126a7565b34801561065457600080fd5b506101b46106633660046129fe565b612720565b34801561067457600080fd5b50610698610683366004612a17565b60076020526000908152604090205460ff1681565b60405190151581526020016101d6565b6002546001600160a01b03166106d95760405162461bcd60e51b81526004016106d090612c73565b60405180910390fd5b3360009081526007602052604090205460ff16156107095760405162461bcd60e51b81526004016106d090612ca8565b600082815260046020819052604090912001546001600160a01b03166107415760405162461bcd60e51b81526004016106d090612cdf565b600082815260046020819052604090912001546001600160a01b0316331461077b5760405162461bcd60e51b81526004016106d090612d23565b600082815260046020526040902080548291906010906107ac908490600160801b90046001600160801b0316612d80565b82546001600160801b039182166101009390930a9283029190920219909116179055506000828152600460205260409020600301546001600160a01b031661084b5734816001600160801b0316146108465760405162461bcd60e51b815260206004820152601f60248201527f4d61726b6574506c6163653a20696e76616c69642065746820616d6f756e740060448201526064016106d0565b6108f4565b6000828152600460208190526040918290206003015491516323b872dd60e01b815233918101919091523060248201526001600160801b03831660448201526001600160a01b03909116906323b872dd906064015b602060405180830381600087803b1580156108ba57600080fd5b505af11580156108ce573d6000803e3d6000fd5b505050506040513d601f19601f820116820180604052508101906108f29190612dab565b505b600082815260046020908152604091829020549151600160801b9092046001600160801b0316825283917f811c4b65a4c24e653571dfc74af77fcbed9f70393a9dbf2cf43c7ead82cb1435910160405180910390a25050565b6109556127cf565b600280546001600160a01b038086166001600160a01b0319928316179092556001805485841692168217905560408051630dfe168160e01b815290516000937f0000000000000000000000000000000000000000000000000000000000000000169291630dfe1681916004808301926020929190829003018186803b1580156109dd57600080fd5b505afa1580156109f1573d6000803e3d6000fd5b505050506040513d601f19601f82011682018060405250810190610a159190612dc8565b6000808052600360208190527f3617319a054d772f909f7c479a2cebe5066e836a939412e32403c99029b92eff80546001600160a01b0319166001600160a01b038881169190911790915592909216929092149250839183610afc57600160009054906101000a90046001600160a01b03166001600160a01b0316630dfe16816040518163ffffffff1660e01b815260040160206040518083038186803b158015610abf57600080fd5b505afa158015610ad3573d6000803e3d6000fd5b505050506040513d601f19601f82011682018060405250810190610af79190612dc8565b610b82565b600160009054906101000a90046001600160a01b03166001600160a01b031663d21220a76040518163ffffffff1660e01b815260040160206040518083038186803b158015610b4a57600080fd5b505afa158015610b5e573d6000803e3d6000fd5b505050506040513d601f19601f82011682018060405250810190610b829190612dc8565b6001600160a01b039081168252602082019290925260400160002080546001600160a01b0319169290911691909117905550505050565b6040805160208101869052908101849052606083811b6bffffffffffffffffffffffff19169082015260748101829052600090609401604051602081830303815290604052805190602001209050949350505050565b6040516001600160f81b031960f88a901b1660208201526001600160801b0319608089811b821660218401526bffffffffffffffffffffffff1960608a811b821660318601526045850189905287831b841660658601529186901b909216607584015287901b1660858201526099810182905260009060b90160405160208183030381529060405280519060200120905098975050505050505050565b610cb46127cf565b6000818152600460208181526040808420805481850180546001600160a01b03908116885260078652848820805460ff19166001179055968890529385905281546001600160801b0390811690925560025493549251631484968760e11b815292861694830194909452600160801b9093049092169216906329092d0e90602401600060405180830381600087803b158015610d4f57600080fd5b505af1158015610d63573d6000803e3d6000fd5b5050506000838152600460205260409020600301546001600160a01b031615159050610de5576040516001600160a01b037f0000000000000000000000000000000000000000000000000000000000000000169082156108fc029083906000818181858888f19350505050158015610ddf573d6000803e3d6000fd5b50610ea0565b60008281526004602081905260409182902060030154915163a9059cbb60e01b81526001600160a01b037f00000000000000000000000000000000000000000000000000000000000000008116928201929092526024810184905291169063a9059cbb90604401602060405180830381600087803b158015610e6657600080fd5b505af1158015610e7a573d6000803e3d6000fd5b505050506040513d601f19601f82011682018060405250810190610e9e9190612dab565b505b6040516000815282907f811c4b65a4c24e653571dfc74af77fcbed9f70393a9dbf2cf43c7ead82cb14359060200160405180910390a26000828152600460208181526040928390209091015491516001600160a01b0390921682527f28e9b38569d728986e5868b0e113d9a49ee4c47dfc6db29a673e25b3515a56a8910160405180910390a15050565b6002546001600160a01b0316610f525760405162461bcd60e51b81526004016106d090612c73565b3360009081526007602052604090205460ff1615610f825760405162461bcd60e51b81526004016106d090612ca8565b600083815260046020819052604090912001546001600160a01b0316610ff95760405162461bcd60e51b815260206004820152602660248201527f4d61726b6574506c6163653a207375636820706f736974696f6e20646f6e277460448201526508195e1a5cdd60d21b60648201526084016106d0565b6000838152600460205260409020600101546001600160801b03808416911611156110705760405162461bcd60e51b815260206004820152602160248201527f4d61726b6574506c6163653a20616d6f756e74206c657373207468616e206d696044820152603760f91b60648201526084016106d0565b6000838152600460205260409020600101546001600160801b03808416600160801b9092041610156110e45760405162461bcd60e51b815260206004820152601e60248201527f4d61726b6574506c6163653a20616d6f756e7420657863656564206d6178000060448201526064016106d0565b600083815260046020819052604082200154611108906001600160a01b0316611632565b9050826001600160801b0316811161117d5760405162461bcd60e51b815260206004820152603260248201527f4d61726b6574506c6163653a20696e73756666696369656e74207374616b696e604482015271339030b6b7bab73a103337b91037b33332b960711b60648201526084016106d0565b600084815260046020526040902080546003909101546012916001600160801b0316906001600160a01b03161561123c5760008681526004602081815260409283902060030154835163313ce56760e01b815293516001600160a01b039091169363313ce56793818101939291829003018186803b1580156111fe57600080fd5b505afa158015611212573d6000803e3d6000fd5b505050506040513d601f19601f820116820180604052508101906112369190612de5565b60ff1691505b600086815260046020526040902060020154600160801b900460ff161561132f576000868152600460205260409020600301547f00000000000000000000000000000000000000000000000000000000000000006001600160a01b03908116911614156112e257600086815260046020526040902054612710906001600160801b03166112c76124fa565b6112d19190612e02565b6112db9190612e21565b905061132f565b60008681526004602052604090208054600390910154612710916001600160801b031690611318906001600160a01b031661217e565b6113229190612e02565b61132c9190612e21565b90505b60008161133d84600a612f27565b611350906001600160801b038916612e02565b61135a9190612e21565b905060006113666124fa565b61137888670de0b6b3a7640000612f33565b6001600160801b031661138b9190612e21565b60025460008a8152600460208190526040918290208101549151630923db4360e31b81526001600160a01b0392831691810182905293945091169163282d3fdf91908490849063491eda189060240160206040518083038186803b1580156113f257600080fd5b505afa158015611406573d6000803e3d6000fd5b505050506040513d601f19601f8201168201806040525081019061142a9190612f62565b6114349190612f7b565b6040516001600160e01b031960e085901b1681526001600160a01b0390921660048301526024820152604401600060405180830381600087803b15801561147a57600080fd5b505af115801561148e573d6000803e3d6000fd5b5050505060006114a989896001600160801b03163342610bb9565b60008a8152600460205260408120600201805492935085929091906114d89084906001600160801b0316612d80565b82546101009290920a6001600160801b038181021990931691831602179091556040805160a0810182528c8152868316602080830191825233838501908152600060608501818152608086018281528a83526005909452908690209451855592516001850180546001600160801b0319169190971617909555935160029092018054915194516001600160a01b039093166001600160a81b031990921691909117600160a01b941515949094029390931760ff60a81b1916600160a81b9115159190910217909155518a91507f10cb1b5fffaa7c030e9c405deb1c35ed8d6f61131dcb067edac2cc95d3573dbf906115d59084908c908c90612fe0565b60405180910390a2505050505050505050565b6115f06127cf565b6115fa6000612829565b565b6116046127cf565b6001600160a01b03918216600090815260036020526040902080546001600160a01b03191691909216179055565b60008061163d6124fa565b600254604051637744518760e11b81526001600160a01b038681166004830152929350670de0b6b3a7640000928492169063ee88a30e9060240160206040518083038186803b15801561168f57600080fd5b505afa1580156116a3573d6000803e3d6000fd5b505050506040513d601f19601f820116820180604052508101906116c79190612f62565b6116d19190612e02565b6116db9190612e21565b9392505050565b6116ea6127cf565b600081815260056020526040902060020154600160a01b900460ff1615801561172c5750600081815260056020526040902060020154600160a81b900460ff16155b6117485760405162461bcd60e51b81526004016106d090613011565b60008181526005602090815260408083206002808201805460ff60a81b1916600160a81b179055600182015491548552600490935290832090910180546001600160801b0392831693919261179f91859116613054565b92506101000a8154816001600160801b0302191690836001600160801b03160217905550807f551093dec6053933c320273f5b5e812f1ef7b496dacdb2f731e5f73fdc1d2eb960405160405180910390a250565b6002546001600160a01b031661181b5760405162461bcd60e51b81526004016106d090612c73565b8160c001517f00000000000000000000000000000000000000000000000000000000000000006001600160a01b0316816001600160a01b031614611890576001600160a01b03818116600090815260036020526040902054166118905760405162461bcd60e51b81526004016106d09061307c565b3360009081526007602052604090205460ff16156118c05760405162461bcd60e51b81526004016106d090612ca8565b60006118f38460a0015185600001518660c001513388602001516001600160801b031689604001518a6060015142610c0f565b905060405180610120016040528085600001516001600160801b0316815260200185602001516001600160801b0316815260200185604001516001600160801b0316815260200185606001516001600160801b0316815260200160006001600160801b031681526020018560800151151581526020018560a0015160ff1681526020018560c001516001600160a01b03168152602001336001600160a01b03168152506004600083815260200190815260200160002060008201518160000160006101000a8154816001600160801b0302191690836001600160801b0316021790555060208201518160000160106101000a8154816001600160801b0302191690836001600160801b0316021790555060408201518160010160006101000a8154816001600160801b0302191690836001600160801b0316021790555060608201518160010160106101000a8154816001600160801b0302191690836001600160801b0316021790555060808201518160020160006101000a8154816001600160801b0302191690836001600160801b0316021790555060a08201518160020160106101000a81548160ff02191690831515021790555060c08201518160020160116101000a81548160ff021916908360ff16021790555060e08201518160030160006101000a8154816001600160a01b0302191690836001600160a01b031602179055506101008201518160040160006101000a8154816001600160a01b0302191690836001600160a01b0316021790555090505060006001600160a01b03168460c001516001600160a01b03161415611ba9573484602001516001600160801b031614611ba45760405162461bcd60e51b815260206004820152601f60248201527f4d61726b6574506c6163653a20696e76616c69642065746820616d6f756e740060448201526064016106d0565b611c45565b60c084015160208501516040516323b872dd60e01b81523360048201523060248201526001600160801b0390911660448201526001600160a01b03909116906323b872dd90606401602060405180830381600087803b158015611c0b57600080fd5b505af1158015611c1f573d6000803e3d6000fd5b505050506040513d601f19601f82011682018060405250810190611c439190612dab565b505b336001600160a01b03168460c001516001600160a01b03167fcadac95e125194e6492648870a18ffa92da080b8dfd934e11ddcaee13059a07d838760000151886020015189604001518a606001518b608001518c60a001518c604051611cb29897969594939291906130be565b60405180910390a350505050565b3360009081526007602052604090205460ff1615611cf05760405162461bcd60e51b81526004016106d090612ca8565b600081815260056020908152604080832054808452600492839052922001546001600160a01b03163314611d7f5760405162461bcd60e51b815260206004820152603060248201527f4d61726b6574506c6163653a20796f75206172656e27742063726561746f722060448201526f37b3103a3434b9903837b9b4ba34b7b760811b60648201526084016106d0565b600082815260056020526040902060020154600160a01b900460ff16158015611dc15750600082815260056020526040902060020154600160a81b900460ff16155b611ddd5760405162461bcd60e51b81526004016106d090613011565b600082815260056020908152604080832060028101805460ff60a01b1916600160a01b17905560010154848452600490925290912080546001600160801b0392831692601091611e36918591600160801b900416613054565b82546101009290920a6001600160801b03818102199093169183160217909155600084815260056020908152604080832060010154868452600490925282206002018054918416945092611e8c91859116613054565b82546101009290920a6001600160801b0381810219909316918316021790915560065460008581526005602052604081206001015490935061271092611ed3929116612e02565b611edd9190612e21565b6000838152600460205260409020600301549091506001600160a01b0316611fc157600083815260056020526040902060028101546001909101546001600160a01b03909116906108fc90611f3c9084906001600160801b0316613121565b6040518115909202916000818181858888f19350505050158015611f64573d6000803e3d6000fd5b506040516001600160a01b037f0000000000000000000000000000000000000000000000000000000000000000169082156108fc029083906000818181858888f19350505050158015611fbb573d6000803e3d6000fd5b5061214e565b600082815260046020908152604080832060030154868452600590925290912060028101546001909101546001600160a01b039283169263a9059cbb9216906120149085906001600160801b0316613121565b6040516001600160e01b031960e085901b1681526001600160a01b0390921660048301526024820152604401602060405180830381600087803b15801561205a57600080fd5b505af115801561206e573d6000803e3d6000fd5b505050506040513d601f19601f820116820180604052508101906120929190612dab565b5060008281526004602081905260409182902060030154915163a9059cbb60e01b81526001600160a01b037f00000000000000000000000000000000000000000000000000000000000000008116928201929092526024810184905291169063a9059cbb90604401602060405180830381600087803b15801561211457600080fd5b505af1158015612128573d6000803e3d6000fd5b505050506040513d601f19601f8201168201806040525081019061214c9190612dab565b505b60405183907fd537159b33aede12d4abc819f5078af138803fe8729a04eae844350df82353c890600090a2505050565b60007f00000000000000000000000000000000000000000000000000000000000000006001600160a01b0316826001600160a01b031614156121c8576121c26124fa565b92915050565b6001600160a01b03828116600090815260036020526040902054166121ff5760405162461bcd60e51b81526004016106d09061307c565b6001600160a01b03808316600090815260036020526040808220548151633fabe5a360e21b815291519293169163feaf968c9160048082019260a092909190829003018186803b15801561225257600080fd5b505afa158015612266573d6000803e3d6000fd5b505050506040513d601f19601f8201168201806040525081019061228a9190613152565b50919695505050505050565b6002546001600160a01b03166122be5760405162461bcd60e51b81526004016106d090612c73565b3360009081526007602052604090205460ff16156122ee5760405162461bcd60e51b81526004016106d090612ca8565b600082815260046020819052604090912001546001600160a01b03166123265760405162461bcd60e51b81526004016106d090612cdf565b600082815260046020819052604090912001546001600160a01b031633146123605760405162461bcd60e51b81526004016106d090612d23565b6000828152600460205260409020600201546123869082906001600160801b0316612d80565b6000838152600460205260409020546001600160801b03918216600160801b90910490911610156123f95760405162461bcd60e51b815260206004820181905260248201527f4d61726b6574506c6163653a20696e73756666696369656e7420616d6f756e7460448201526064016106d0565b6000828152600460205260409020805482919060109061242a908490600160801b90046001600160801b0316613054565b82546001600160801b039182166101009390930a9283029190920219909116179055506000828152600460205260409020600301546001600160a01b03166124a75760405133906001600160801b03831680156108fc02916000818181858888f193505050501580156124a1573d6000803e3d6000fd5b506108f4565b60008281526004602081905260409182902060030154915163a9059cbb60e01b815233918101919091526001600160801b03831660248201526001600160a01b039091169063a9059cbb906044016108a0565b6000807f00000000000000000000000000000000000000000000000000000000000000006001600160a01b0316600160009054906101000a90046001600160a01b03166001600160a01b0316630dfe16816040518163ffffffff1660e01b815260040160206040518083038186803b15801561257557600080fd5b505afa158015612589573d6000803e3d6000fd5b505050506040513d601f19601f820116820180604052508101906125ad9190612dc8565b6001600160a01b0316149050600080600160009054906101000a90046001600160a01b03166001600160a01b0316630902f1ac6040518163ffffffff1660e01b815260040160606040518083038186803b15801561260a57600080fd5b505afa15801561261e573d6000803e3d6000fd5b505050506040513d601f19601f8201168201806040525081019061264291906131b9565b506001600160701b031691506001600160701b031691506000612665600061217e565b905060008461268857826126798584612e02565b6126839190612e21565b61269d565b836126938484612e02565b61269d9190612e21565b9695505050505050565b6126af6127cf565b6001600160a01b0381166127145760405162461bcd60e51b815260206004820152602660248201527f4f776e61626c653a206e6577206f776e657220697320746865207a65726f206160448201526564647265737360d01b60648201526084016106d0565b61271d81612829565b50565b3360009081526007602052604090205460ff16156127505760405162461bcd60e51b81526004016106d090612ca8565b6000818152600560205260409020600201546001600160a01b031633146116ea5760405162461bcd60e51b815260206004820152602d60248201527f4d61726b6574506c6163653a20796f75206172656e27742063726561746f722060448201526c37b3103a3434b99037b33332b960991b60648201526084016106d0565b6000546001600160a01b031633146115fa5760405162461bcd60e51b815260206004820181905260248201527f4f776e61626c653a2063616c6c6572206973206e6f7420746865206f776e657260448201526064016106d0565b600080546001600160a01b038381166001600160a01b0319831681178455604051919092169283917f8be0079c531659141344cd1fd0a4f28419497f9722a3daafe3b4186f6b6457e09190a35050565b80356001600160801b038116811461289057600080fd5b919050565b600080604083850312156128a857600080fd5b823591506128b860208401612879565b90509250929050565b6001600160a01b038116811461271d57600080fd5b6000806000606084860312156128eb57600080fd5b83356128f6816128c1565b92506020840135612906816128c1565b91506040840135612916816128c1565b809150509250925092565b6000806000806080858703121561293757600080fd5b84359350602085013592506040850135612950816128c1565b9396929550929360600135925050565b60ff8116811461271d57600080fd5b600080600080600080600080610100898b03121561298c57600080fd5b883561299781612960565b97506129a560208a01612879565b965060408901356129b5816128c1565b955060608901356129c5816128c1565b9450608089013593506129da60a08a01612879565b92506129e860c08a01612879565b915060e089013590509295985092959890939650565b600060208284031215612a1057600080fd5b5035919050565b600060208284031215612a2957600080fd5b81356116db816128c1565b634e487b7160e01b600052604160045260246000fd5b60405160e0810167ffffffffffffffff81118282101715612a6d57612a6d612a34565b60405290565b600082601f830112612a8457600080fd5b813567ffffffffffffffff80821115612a9f57612a9f612a34565b604051601f8301601f19908116603f01168101908282118183101715612ac757612ac7612a34565b81604052838152866020858801011115612ae057600080fd5b836020870160208301376000602085830101528094505050505092915050565b600080600060608486031215612b1557600080fd5b83359250612b2560208501612879565b9150604084013567ffffffffffffffff811115612b4157600080fd5b612b4d86828701612a73565b9150509250925092565b60008060408385031215612b6a57600080fd5b8235612b75816128c1565b91506020830135612b85816128c1565b809150509250929050565b801515811461271d57600080fd5b600080828403610100811215612bb357600080fd5b60e0811215612bc157600080fd5b50612bca612a4a565b612bd384612879565b8152612be160208501612879565b6020820152612bf260408501612879565b6040820152612c0360608501612879565b60608201526080840135612c1681612b90565b608082015260a0840135612c2981612960565b60a082015260c0840135612c3c816128c1565b60c0820152915060e083013567ffffffffffffffff811115612c5d57600080fd5b612c6985828601612a73565b9150509250929050565b6020808252818101527f4d61726b6574506c6163653a206e6f7420696e697469616c697a656420796574604082015260600190565b6020808252601c908201527f4d61726b6574506c6163653a20626c6f636b6564206164647265737300000000604082015260600190565b60208082526024908201527f4d61726b6574506c6163653a206e6f74206578697374207375636820706f73696040820152633a34b7b760e11b606082015260800190565b60208082526027908201527f4d61726b6574506c6163653a206e6f74206f776e6572206f662074686973207060408201526637b9b4ba34b7b760c91b606082015260800190565b634e487b7160e01b600052601160045260246000fd5b60006001600160801b03808316818516808303821115612da257612da2612d6a565b01949350505050565b600060208284031215612dbd57600080fd5b81516116db81612b90565b600060208284031215612dda57600080fd5b81516116db816128c1565b600060208284031215612df757600080fd5b81516116db81612960565b6000816000190483118215151615612e1c57612e1c612d6a565b500290565b600082612e3e57634e487b7160e01b600052601260045260246000fd5b500490565b600181815b80851115612e7e578160001904821115612e6457612e64612d6a565b80851615612e7157918102915b93841c9390800290612e48565b509250929050565b600082612e95575060016121c2565b81612ea2575060006121c2565b8160018114612eb85760028114612ec257612ede565b60019150506121c2565b60ff841115612ed357612ed3612d6a565b50506001821b6121c2565b5060208310610133831016604e8410600b8410161715612f01575081810a6121c2565b612f0b8383612e43565b8060001904821115612f1f57612f1f612d6a565b029392505050565b60006116db8383612e86565b60006001600160801b0380831681851681830481118215151615612f5957612f59612d6a565b02949350505050565b600060208284031215612f7457600080fd5b5051919050565b60008219821115612f8e57612f8e612d6a565b500190565b6000815180845260005b81811015612fb957602081850181015186830182015201612f9d565b81811115612fcb576000602083870101525b50601f01601f19169290920160200192915050565b8381526001600160801b03831660208201526060604082015260006130086060830184612f93565b95945050505050565b60208082526023908201527f4d61726b6574506c6163653a206f6666657220616c72656164792066696e69736040820152621a195960ea1b606082015260800190565b60006001600160801b038381169083168181101561307457613074612d6a565b039392505050565b60208082526022908201527f4d61726b6574506c6163653a20746f6b656e206e6f742077686974656c697374604082015261195960f21b606082015260800190565b60006101008a83526001600160801b03808b166020850152808a166040850152808916606085015280881660808501525085151560a084015260ff851660c08401528060e084015261311281840185612f93565b9b9a5050505050505050505050565b60008282101561313357613133612d6a565b500390565b805169ffffffffffffffffffff8116811461289057600080fd5b600080600080600060a0868803121561316a57600080fd5b61317386613138565b945060208601519350604086015192506060860151915061319660808701613138565b90509295509295909350565b80516001600160701b038116811461289057600080fd5b6000806000606084860312156131ce57600080fd5b6131d7846131a2565b92506131e5602085016131a2565b9150604084015163ffffffff8116811461291657600080fdfea264697066735822122007811ed173fc2b62b78d3383f50943e6069a4a566baacb0d1410e1d68049593564736f6c63430008090033",
  "devdoc": {
    "kind": "dev",
    "methods": {
      "cancelOffer(bytes32)": {
        "details": "cancel offer",
        "params": {
          "key": "key of offer"
        }
      },
      "constructor": {
        "params": {
          "cil_": "cilistia token address",
          "multiSig_": "multi sign wallet address"
        }
      },
      "createOffer(bytes32,uint128,string)": {
        "details": "create offer",
        "params": {
          "amount": "amount to offer",
          "positionKey": "key of position",
          "terms": "terms of position"
        }
      },
      "createPosition((uint128,uint128,uint128,uint128,bool,uint8,address),string)": {
        "details": "create position",
        "params": {
          "params": "position create params",
          "terms": "terms of position"
        }
      },
      "decreasePosition(bytes32,uint128)": {
        "details": "decrease position amount",
        "params": {
          "amount": "amount to increase",
          "key": "key of position"
        }
      },
      "forceCancelOffer(bytes32)": {
        "details": "force cancel offer",
        "params": {
          "key": "key of offer"
        }
      },
      "forceRemovePosition(bytes32)": {
        "details": "force remove position",
        "params": {
          "key": "key of position"
        }
      },
      "getCilPrice()": {
        "details": "get cil token price from uniswap",
        "returns": {
          "_0": "price price of cil token"
        }
      },
      "getOfferKey(bytes32,uint256,address,uint256)": {
        "details": "calcualate key of position"
      },
      "getPositionKey(uint8,uint128,address,address,uint256,uint128,uint128,uint256)": {
        "details": "calcualate key of position"
      },
      "getStakedCil(address)": {
        "details": "get staking amount with eth",
        "params": {
          "user": "wallet address"
        },
        "returns": {
          "totalAmount": "amount of staked cil with usd"
        }
      },
      "getTokenPrice(address)": {
        "details": "get token price",
        "params": {
          "token": "address of token"
        },
        "returns": {
          "_0": "price price of token"
        }
      },
      "increasePosition(bytes32,uint128)": {
        "details": "increate position amount",
        "params": {
          "amount": "amount to increase",
          "key": "key of position"
        }
      },
      "init(address,address,address)": {
        "details": "set staking contract address",
        "params": {
          "cilPair_": "address of cil/eth pair",
          "cilStaking_": "staking contract address",
          "ethPricefeed_": "weth pricefeed contract address"
        }
      },
      "owner()": {
        "details": "Returns the address of the current owner."
      },
      "releaseOffer(bytes32)": {
        "details": "release offer",
        "params": {
          "key": "key of offer"
        }
      },
      "renounceOwnership()": {
        "details": "Leaves the contract without owner. It will not be possible to call `onlyOwner` functions anymore. Can only be called by the current owner. NOTE: Renouncing ownership will leave the contract without an owner, thereby removing any functionality that is only available to the owner."
      },
      "setPriceFeed(address,address)": {
        "details": "set token price feed",
        "params": {
          "pricefeed": "address of chainlink aggregator",
          "token": "address of token"
        }
      },
      "transferOwnership(address)": {
        "details": "Transfers ownership of the contract to a new account (`newOwner`). Can only be called by the current owner."
      }
    },
    "title": "Cilistia P2P MarketPlace",
    "version": 1
  },
  "userdoc": {
    "events": {
      "AccountBlocked(address)": {
        "notice": "fires when block account"
      },
      "OfferCanceled(bytes32)": {
        "notice": "fires when cancel offer"
      },
      "OfferCreated(bytes32,bytes32,uint128,string)": {
        "notice": "fires when position state change"
      },
      "OfferReleased(bytes32)": {
        "notice": "fires when release offer"
      },
      "PositionCreated(bytes32,uint128,uint128,uint128,uint128,bool,uint8,address,address,string)": {
        "notice": "fires when create position"
      },
      "PositionUpdated(bytes32,uint128)": {
        "notice": "fires when update position"
      }
    },
    "kind": "user",
    "methods": {
      "cil()": {
        "notice": "cil address"
      },
      "cilPair()": {
        "notice": "uniswap router address"
      },
      "cilStaking()": {
        "notice": "cil staking address"
      },
      "feePoint()": {
        "notice": "fee decimals 2"
      },
      "isBlocked(address)": {
        "notice": "blocked address"
      },
      "multiSig()": {
        "notice": "multi sign wallet address of team"
      },
      "offers(bytes32)": {
        "notice": "offers (bytes32 => Offer)"
      },
      "positions(bytes32)": {
        "notice": "positions (bytes32 => Position)"
      },
      "pricefeeds(address)": {
        "notice": "chainlink pricefeeds (address => address)"
      }
    },
    "notice": "cilistia MarketPlace contract price decimals 8 percent decimals 2",
    "version": 1
  },
  "storageLayout": {
    "storage": [
      {
        "astId": 53,
        "contract": "contracts/core/MarketPlace.sol:MarketPlace",
        "label": "_owner",
        "offset": 0,
        "slot": "0",
        "type": "t_address"
      },
      {
        "astId": 4623,
        "contract": "contracts/core/MarketPlace.sol:MarketPlace",
        "label": "cilPair",
        "offset": 0,
        "slot": "1",
        "type": "t_address"
      },
      {
        "astId": 4626,
        "contract": "contracts/core/MarketPlace.sol:MarketPlace",
        "label": "cilStaking",
        "offset": 0,
        "slot": "2",
        "type": "t_address"
      },
      {
        "astId": 4631,
        "contract": "contracts/core/MarketPlace.sol:MarketPlace",
        "label": "pricefeeds",
        "offset": 0,
        "slot": "3",
        "type": "t_mapping(t_address,t_address)"
      },
      {
        "astId": 4637,
        "contract": "contracts/core/MarketPlace.sol:MarketPlace",
        "label": "positions",
        "offset": 0,
        "slot": "4",
        "type": "t_mapping(t_bytes32,t_struct(Position)4603_storage)"
      },
      {
        "astId": 4643,
        "contract": "contracts/core/MarketPlace.sol:MarketPlace",
        "label": "offers",
        "offset": 0,
        "slot": "5",
        "type": "t_mapping(t_bytes32,t_struct(Offer)4614_storage)"
      },
      {
        "astId": 4647,
        "contract": "contracts/core/MarketPlace.sol:MarketPlace",
        "label": "feePoint",
        "offset": 0,
        "slot": "6",
        "type": "t_uint256"
      },
      {
        "astId": 4652,
        "contract": "contracts/core/MarketPlace.sol:MarketPlace",
        "label": "isBlocked",
        "offset": 0,
        "slot": "7",
        "type": "t_mapping(t_address,t_bool)"
      }
    ],
    "types": {
      "t_address": {
        "encoding": "inplace",
        "label": "address",
        "numberOfBytes": "20"
      },
      "t_bool": {
        "encoding": "inplace",
        "label": "bool",
        "numberOfBytes": "1"
      },
      "t_bytes32": {
        "encoding": "inplace",
        "label": "bytes32",
        "numberOfBytes": "32"
      },
      "t_mapping(t_address,t_address)": {
        "encoding": "mapping",
        "key": "t_address",
        "label": "mapping(address => address)",
        "numberOfBytes": "32",
        "value": "t_address"
      },
      "t_mapping(t_address,t_bool)": {
        "encoding": "mapping",
        "key": "t_address",
        "label": "mapping(address => bool)",
        "numberOfBytes": "32",
        "value": "t_bool"
      },
      "t_mapping(t_bytes32,t_struct(Offer)4614_storage)": {
        "encoding": "mapping",
        "key": "t_bytes32",
        "label": "mapping(bytes32 => struct MarketPlace.Offer)",
        "numberOfBytes": "32",
        "value": "t_struct(Offer)4614_storage"
      },
      "t_mapping(t_bytes32,t_struct(Position)4603_storage)": {
        "encoding": "mapping",
        "key": "t_bytes32",
        "label": "mapping(bytes32 => struct MarketPlace.Position)",
        "numberOfBytes": "32",
        "value": "t_struct(Position)4603_storage"
      },
      "t_struct(Offer)4614_storage": {
        "encoding": "inplace",
        "label": "struct MarketPlace.Offer",
        "members": [
          {
            "astId": 4605,
            "contract": "contracts/core/MarketPlace.sol:MarketPlace",
            "label": "positionKey",
            "offset": 0,
            "slot": "0",
            "type": "t_bytes32"
          },
          {
            "astId": 4607,
            "contract": "contracts/core/MarketPlace.sol:MarketPlace",
            "label": "amount",
            "offset": 0,
            "slot": "1",
            "type": "t_uint128"
          },
          {
            "astId": 4609,
            "contract": "contracts/core/MarketPlace.sol:MarketPlace",
            "label": "creator",
            "offset": 0,
            "slot": "2",
            "type": "t_address"
          },
          {
            "astId": 4611,
            "contract": "contracts/core/MarketPlace.sol:MarketPlace",
            "label": "released",
            "offset": 20,
            "slot": "2",
            "type": "t_bool"
          },
          {
            "astId": 4613,
            "contract": "contracts/core/MarketPlace.sol:MarketPlace",
            "label": "canceled",
            "offset": 21,
            "slot": "2",
            "type": "t_bool"
          }
        ],
        "numberOfBytes": "96"
      },
      "t_struct(Position)4603_storage": {
        "encoding": "inplace",
        "label": "struct MarketPlace.Position",
        "members": [
          {
            "astId": 4586,
            "contract": "contracts/core/MarketPlace.sol:MarketPlace",
            "label": "price",
            "offset": 0,
            "slot": "0",
            "type": "t_uint128"
          },
          {
            "astId": 4588,
            "contract": "contracts/core/MarketPlace.sol:MarketPlace",
            "label": "amount",
            "offset": 16,
            "slot": "0",
            "type": "t_uint128"
          },
          {
            "astId": 4590,
            "contract": "contracts/core/MarketPlace.sol:MarketPlace",
            "label": "minAmount",
            "offset": 0,
            "slot": "1",
            "type": "t_uint128"
          },
          {
            "astId": 4592,
            "contract": "contracts/core/MarketPlace.sol:MarketPlace",
            "label": "maxAmount",
            "offset": 16,
            "slot": "1",
            "type": "t_uint128"
          },
          {
            "astId": 4594,
            "contract": "contracts/core/MarketPlace.sol:MarketPlace",
            "label": "offerredAmount",
            "offset": 0,
            "slot": "2",
            "type": "t_uint128"
          },
          {
            "astId": 4596,
            "contract": "contracts/core/MarketPlace.sol:MarketPlace",
            "label": "priceType",
            "offset": 16,
            "slot": "2",
            "type": "t_bool"
          },
          {
            "astId": 4598,
            "contract": "contracts/core/MarketPlace.sol:MarketPlace",
            "label": "paymentMethod",
            "offset": 17,
            "slot": "2",
            "type": "t_uint8"
          },
          {
            "astId": 4600,
            "contract": "contracts/core/MarketPlace.sol:MarketPlace",
            "label": "token",
            "offset": 0,
            "slot": "3",
            "type": "t_address"
          },
          {
            "astId": 4602,
            "contract": "contracts/core/MarketPlace.sol:MarketPlace",
            "label": "creator",
            "offset": 0,
            "slot": "4",
            "type": "t_address"
          }
        ],
        "numberOfBytes": "160"
      },
      "t_uint128": {
        "encoding": "inplace",
        "label": "uint128",
        "numberOfBytes": "16"
      },
      "t_uint256": {
        "encoding": "inplace",
        "label": "uint256",
        "numberOfBytes": "32"
      },
      "t_uint8": {
        "encoding": "inplace",
        "label": "uint8",
        "numberOfBytes": "1"
      }
    }
  }
}